:04000000B1EF04F068
:1000080000C016F001C015F0F0A004D0010E226E59
:10001800F0901DD0F2A204D0010E196EF29217D002
:10002800F2A415D0010E2524006E000E2620016EC4
:1000380000C025F001C026F02650000802E1255036
:10004800260804E2010E176E256A266AF29416C085
:0800580000F015C001F01100D9
:1000600009C103F00AC104F00BC105F00CC106F090
:1000700001010DA72CD003C002F00232029E023211
:10008000029E0232029E050E016E04C000F0015075
:1000900004E000360090FF0FFBD707C1E1FF08C165
:1000A000E2FF00500210E66E074B082B050E016EB2
:1000B00003C000F0015004E000360090FF0FFBD7B2
:1000C00007C1E1FF08C1E2FF00C0E6FF43D0050E13
:1000D000006E05C002F0005004E00232029EFF0FE5
:1000E000FBD7010106C000F00036009000360090FA
:1000F0000036009007C1E1FF08C1E2FF0050021086
:10010000E66E074B082B05C000F000360090003665
:10011000009000360090E00E0016080E0010016EF0
:10012000030E0514006E07C1E1FF08C1E2FF005095
:100130000110E66E074B082B07C1E1FF08C1E2FF83
:1001400004C0E6FF074B082B07C1E1FF08C1E2FF2F
:0601500003C0E6FF1200EF
:10015600010101070207030704070507060E006EE3
:1001660001C170FF005004E070367090FF0FFBD79E
:100176000251701203C171FF713671907136719020
:10018600713671900551711206B501D0718C06A1B8
:1001960001D0718E04C172FF06A301D0728C1200C9
:1001A600010102530AE001C16FFFE00E6E14016EF9
:1001B6000150011901E0F9D702D001C16FFF120009
:1001C60066D0000E0101076F0F0E086F02C109F11C
:1001D60003C10AF104C10BF105C10CF106C10DF111
:1001E6003CDF66D0040E0101076F0F0E086F02C1D7
:1001F60009F103C10AF104C10BF105C10CF106C1F5
:100206000DF12BDF55D0080E0101076F0F0E086F99
:1002160002C109F103C10AF104C10BF105C10CF1D8
:1002260006C10DF11ADF44D00C0E0101076F0F0E47
:10023600086F02C109F103C10AF104C10BF105C13E
:100246000CF106C10DF109DF33D0100E0101076F65
:100256000F0E086F02C109F103C10AF104C10BF1C7
:1002660005C10CF106C10DF1F8DE22D0140E010114
:10027600076F0F0E086F02C109F103C10AF104C12D
:100286000BF105C10CF106C10DF1E7DE11D001013C
:100296000151000A96E00151010AA4E00151020A47
:1002A600B2E00151030AC0E00151040ACEE0DED7F4
:0202B600120034
:1002B80001010151000A10E1180E076F0F0E086FB7
:1002C80002C109F103C10AF104C10BF105C10CF126
:1002D80006C10DF1C1DE10D01C0E0101076F0F0E13
:1002E800086F02C109F103C10AF104C10BF105C18C
:0A02F8000CF106C10DF1B0DE12009A
:0E030200026A016A006A086A036A000E1200AD
:1003100093949386800E0101016FFF0E026F43DFFD
:10032000F7C001F1F8C002F1F9C003F1FAC004F11D
:10033000FBC005F1FCC006F10EDF600E0001FC15EC
:10034000606E100EFC15016E0150100AD8B4608466
:1003500060CF50FF0101016B026B036B046B056BF7
:10036000F70E066FA9DF010E0101016F026B036B2F
:10037000046B056BF70E066F9FDF600E0001FC1526
:10038000006E9F0E0010016E0FD0F70EFD6FF70E7E
:10039000FE6F11D0FF0EFD6FFF0EFE6F0CD0FF0E33
:1003A000FD6FF70EFE6F07D00150DF0AEEE001503F
:1003B000BF0AF0E0F4D70101016B026B036B046B21
:1003C000056BFDC006F1FFDE010E0101016F026B3E
:1003D000036B046B056BFDC006F1F5DE020E010137
:1003E000016F026B036B046B056BFEC006F1EBDE65
:1003F000030E0101016F026B036B046B056BFEC002
:1004000006F1E1DE040E0101016F026B036B046B68
:10041000056BFEC006F1D7DE050E0101016F026B10
:10042000036B046B056BFEC006F1CDDE0101016BB1
:08043000FF0E026FB8DE12009E
:080438000AAE029E000E120044
:100440000B840BAE2BEF02F0010E036E026A016A01
:0A045000006A0A360232FF0E1200A5
:10045A000B820BAE37EF02F003680268016800688E
:08046A000A360232FF0E1200F7
:10047200010E0001F76F010EF86F060EF96F070EFD
:10048200FA6F060EFB6FB90EFC6F41DF800E016F33
:10049200FF0E026F87DEFF0E0001F36FFF0EF46F97
:1004A200F56FF66F0101016BFF0E026FFF0E036F16
:1004B200FF0E046FFF0E056FFF0E066FFCDE010ECE
:1004C2000101016FF3C002F1F4C003F1F5C004F1C0
:1004D200F6C005F1FF0E066FEEDE0101016B020EA2
:1004E200026F020E036F000E046F056FFF0E066FA0
:1004F20069DE010E0101016F500E026F000E036FE3
:10050200046F056FFF0E066F5DDE0101016BFF0ECA
:06051200026F48DE12003A
:100518000C6A0E6A0250D8A4A5EF02F001C002F0DE
:1005280000C001F0006A0E860250D8A4A5EF02F0C0
:1005380001C002F0016A0E960E880250D8B4B7EFD7
:1005480002F00E50035ED8A4D8A0BCEF02F0D890F9
:1005580002BEC1EF02F0003601360236032EACEFC0
:1005680002F0BCEF02F0010E0C6EC7DEC4EF02F021
:10057800020E0C6E61DFC4EF02F0040E0C6E58DF41
:0205880012005F
:10058A000B800BAED1EF02F0026A0AAEFF0E026ECA
:0C059A00016E006E0A360232FF0E1200E5
:1005A6000C0E0001D66F090ED76FE80ED86F000E3D
:1005B600D96F460EE26F090EE36F000EE46F000E70
:1005C600E56F580EDA6F090EDB6F000EDC6F000E5A
:1005D600DD6FFF0EDE6FFF0EDF6F000EE06F000EA9
:1005E600E16FAC8A900EAB6E948E949C9EAA03D05B
:0805F600AECF00F0FBD71200AC
:1005FE00926A936A946A896A8A6A8B6A8288828A04
:10060E00F28EF28CF28AF18EF18CF18AF184F098EE
:10061E00F086F288948E949C400EAF6EAC84AC98AB
:10062E00AB8EAC8AAB88AC9CAB9C400EAF6EAC84F0
:10063E00B3DF93869394D58ED58CD59AD596070E27
:10064E00D51210DF256A266A226A196A010E176E04
:0A065E00246A0001B76BB86B1200AC
:10066800086A096A000E07620364B9EF03F00250D2
:1006780006180A6E075003267E0ED8A04AEF03F02C
:10068800035ED8B0BDEF03F04EEF03F0035ED8A0D1
:10069800C1EF03F0028E068E02C00EF001C00BF00F
:1006A80000C00DF000500402F4CF0CF00150050218
:1006B800F4CF00F0F3CF08F00402F3500C26F45006
:1006C8000822000E00220D500502F3500C26F450AB
:1006D8000822000E002202500402F3500826F450AB
:1006E800002202500502016A000E0122F350002682
:1006F800F45001220D500602F3500826F45000224F
:10070800026A000E012202220B500602F350002654
:10071800F4500122000E02220E500602F350012668
:10072800F450022202BEA1EF03F00836003601366B
:1007380002360306D8B4C1EF03F0B4EF03F0D88053
:10074800800E08640030000E002201220222D8A088
:10075800B4EF03F0023201320032034ABDEF03F076
:100768000AAE029E000EC3EF03F0010EC6DDC3EF12
:1007780003F0020E6EDEC3EF03F0040E5DDE12001E
:100788000050086E0150006E016A026A036A0B6A23
:100798000C6A960E036E0A6A00C001F008C000F0E9
:0807A800086A026AB5DE1200C6
:1007B0000F0140B704D0F10E6F166F860FD030B71F
:1007C00005D0F10E6F16060E6F1208D020B704D0B8
:1007D000F10E6F166F8402D0006A4AD0030E00013A
:1007E000EF15606EEFB711D0610E0101076F0F0EAC
:1007F000086FE8C009F1E9C00AF1EAC00BF1EBC0EB
:100800000CF1F70E0D6F2CDC10D0610E0101076F9B
:100810000F0E086FE8C009F1E9C00AF1EAC00BF158
:10082000EBC00CF1FF0E0D6F1BDCEEC065FF00018D
:10083000EFBD01D0658C660EF16F0F0EF26FF06B9D
:10084000EE51F05D10E2F051F125E16E000EF22163
:10085000E26EF051EC25E96E000EED21EA6EEECF6E
:10086000E6FFF02BEDD76086F10E6F16FF0E006EDF
:02087000120074
:100872000B6A0C6A0A6A0350D8B46EEF04F00A9E3F
:10088200028E860E035E03BE4CEF04F0D8B44CEF2A
:1008920004F071EF04F0036C080E035CD8A05AEF69
:1008A20004F0036E0236026A0350D8A4D89063EFB4
:1008B20004F00350D8B463EF04F0D8900232032E50
:1008C2005EEF04F00BBC02A06EEF04F0D8A06EEF56
:1008D20004F0022AD8B478EF04F0016A7DEF04F044
:1008E2000B800BAE81EF04F0016A81EF04F0010E80
:1008F2000C6E4ADE83EF04F0000E0C6E83EF04F000
:0A090200FF0E0C6E0250006E120092
:0E090C00ACB202D00000FCD7E8C0ADFF120074
:10091A00016A026A800E0218006E800E005C02E113
:10092A00080E015C0AE21A0E0124E16E000E022092
:0C093A00E26EE66A014A022AEDD71200C4
:10094600AECF01F0ABA202D0AB98AB8801C000F0ED
:0209560012008D
:0A095800000E9EBA010E006E1200A0
:100962004DDE8298829AD8DF2250010AD8B42080C4
:100972001950010AD8B420821750010A5CE11850BC
:10098200000808E2232A23500A0803E22084236A8B
:10099200186A50D0236A0001B74BB82B800EB819E1
:1009A200006E800E000A005C02E1120EB75D02E3E7
:1009B200B76BB86B810EE86FA8DFAA0E0001E86F73
:1009C200A4DFB7C000F0B8C001F0000E0001B8BF4C
:1009D200FF0E026E036E00360090013602360336B9
:1009E200C20E0024F66E0C0E0120F76E000E0220DD
:1009F200F86E0900F5CFE8F088DFB7C000F0B8C0A4
:100A020001F0000E0001B8BFFF0E026E036E003649
:100A12000090013602360336C20E0024F66E0C0E2A
:100A22000120F76E000E0220F86E0900F5CFE8F003
:100A32006CDF8278176A8FDF0052D8B427D1B90EE3
:100A42000001E66F000EE76F1850E627D8B0E72BDB
:100A520079DFE6C0E1FFE7C0E2FF00C0E6FF182A47
:100A620018501D0AD8A412D1B7C000F0B8C001F0C6
:100A7200000E0001B8BFFF0E026E036E003600903A
:100A8200013602360336C20E0024F66E0C0E012029
:100A9200F76E000E0220F86E0900F5CF1AF0030E71
:100AA200026EB7C000F0B8C001F0025005E0003697
:100AB20000900136FF0FFAD70001270E0026000E24
:100AC200012200C0E6F001C0E7F0BCC001F0006AFC
:100AD200BB510012000E011256DE5C0E046E8F0E28
:100AE200056E020E066E7D0E076EBDDDC1DEE6C02E
:100AF200E1FFE7C0E2FF00C0E6FF000EE66E030E74
:100B0200026EB7C000F0B8C001F0025005E0003636
:100B120000900136FF0FFAD70001270E0026000EC3
:100B2200012200C0E9FF01C0EAFFEECF1BF0020E76
:100B32000024E66F000E0120E76FC0C001F0006ADA
:100B4200BF510012000E01121EDE5C0E046E8F0EEB
:100B5200056E020E066E7D0E076E85DD89DEE6C02D
:100B6200E1FFE7C0E2FF00C0E6FF000EE66E030E03
:100B7200026EB7C000F0B8C001F0025005E00036C6
:100B820000900136FF0FFAD70001270E0026000E53
:100B92000122020E0024E96E000E0120EA6EEECF61
:100BA2001CF0040E0024E66F000E0120E76FC4C0A3
:100BB20001F0006AC3510012000E0112E4DD5C0E66
:100BC200046E8F0E056E020E066E7D0E076E4BDDF5
:100BD2004FDEE6C0E1FFE7C0E2FF00C0E6FF000E25
:100BE200E66E030E026EB7C000F0B8C001F002500C
:100BF20005E0003600900136FF0FFAD70001270EFC
:100C02000026000E0122040E0024E96E000E0120CF
:100C1200EA6EEECF1DF0060E0024E66F000E0120F4
:100C2200E76FC8C001F0006AC7510012000E01123E
:100C3200AADD5C0E046E8F0E056E020E066E7D0E30
:100C4200076E11DD15DEE6C0E1FFE7C0E2FF00C07E
:100C5200E6FF000EE66E030E026EB7C000F0B8C0EB
:100C620001F0025005E0003600900136FF0FFAD77E
:100C7200270E0026000E0122060E0024E96E000E49
:100C82000120EA6EEECF1EF0010E246E2450010AFE
:100C920015E10001880EE86F000EE96F000EEA6FA1
:100CA200000EEB6F1A0EEC6F000EED6F010EEE6F81
:100CB200FC0EEF6F7CDD827A186A246A54D6FFD765
:100CC2000700080009000A000B000C000D000E00CE
:100CD2000F0010001100120013001400150016007E
:040CE20017001800DF
:020000040030CA
:0D000100220F0EFFFF81FF0FC00FE00F4028
:00000001FF
