:040000001DEF03F0FD
:1000080000C016F001C015F0F0A004D0010E2D6E4E
:10001800F0901DD0F2A204D0010E2C6EF29217D0EF
:10002800F2A415D0010E2A24006E000E2B20016EBA
:1000380000C02AF001C02BF02B50000802E12A5022
:10004800260804E2010E296E2A6A2B6AF29416C069
:0800580000F015C001F01100D9
:1000600055C003F056C004F057C005F058C006F064
:1000700059A62CD003C002F00232029E0232029E28
:100080000232029E050E016E04C000F0015004E031
:1000900000360090FF0FFBD753C0E1FF54C0E2FFD2
:1000A00000500210E66E534A542A050E016E03C03A
:1000B00000F0015004E000360090FF0FFBD753C062
:1000C000E1FF54C0E2FF00C0E6FF42D0050E006E23
:1000D00005C002F0005004E00232029EFF0FFBD781
:1000E00006C000F000360090003600900036009008
:1000F00053C0E1FF54C0E2FF00500210E66E534AC5
:10010000542A05C000F000360090003600900036FA
:100110000090E00E0016080E0010016E030E05148C
:10012000006E53C0E1FF54C0E2FF00500110E66EC4
:10013000534A542A53C0E1FF54C0E2FF04C0E6FF13
:10014000534A542A53C0E1FF54C0E2FF03C0E6FF04
:0201500012009B
:100152004D50000A10E1180E536E0F0E546E4EC031
:1001620055F04FC056F050C057F051C058F052C031
:1001720059F075DF0FD01C0E536E0F0E546E4EC029
:1001820055F04FC056F050C057F051C058F052C011
:0601920059F065DF1200C8
:100198004E520AE04DC06FFFE00E6E14016E015022
:0E01A8004D1801E0F9D702D04DC06FFF1200D4
:1001B6004D064E064F0650065106060E006E4DC001
:1001C60070FF005004E070367090FF0FFBD74E5062
:1001D60070124FC071FF7136719071367190713621
:1001E60071905150711252A4718C52B0718E50C0E0
:0801F60072FF52B2728C12007C
:1001FE0060D0000E536E0F0E546E4EC055F04FC0B1
:10020E0056F050C057F051C058F052C059F021DF8F
:10021E0060D0040E536E0F0E546E4EC055F04FC08C
:10022E0056F050C057F051C058F052C059F011DF7F
:10023E0050D0080E536E0F0E546E4EC055F04FC078
:10024E0056F050C057F051C058F052C059F001DF6F
:10025E0040D00C0E536E0F0E546E4EC055F04FC064
:10026E0056F050C057F051C058F052C059F0F1DE60
:10027E0030D0100E536E0F0E546E4EC055F04FC050
:10028E0056F050C057F051C058F052C059F0E1DE50
:10029E0020D0140E536E0F0E546E4EC055F04FC03C
:1002AE0056F050C057F051C058F052C059F0D1DE40
:1002BE0010D04D50000A9DE04D50010AAAE04D505D
:1002CE00020AB7E04D50030AC4E04D50040AD1E0D3
:0402DE00E0D7120053
:1002E20093949386800E4D6EFF0E4E6E54DF45C082
:1002F2004DF046C04EF047C04FF048C050F049C0E4
:1003020051F04AC052F056DF600E4A14606E100E71
:100312004A14016E0150100AD8B4608460CF50FFB5
:100322004D6A4E6A4F6A506A516AF70E526E10DF7A
:10033200010E4D6E4E6A4F6A506A516AF70E526E46
:1003420007DF600E4A14006E9F0E0010016E0FD080
:10035200F70E4B6EF70E4C6E11D0FF0E4B6EFF0E6A
:100362004C6E0CD0FF0E4B6EF70E4C6E07D0015048
:10037200DF0AEEE00150BF0AF0E0F4D74D6A4E6AA0
:100382004F6A506A516A4BC052F038DF010E4D6E0F
:100392004E6A4F6A506A516A4BC052F02FDF020E0A
:1003A2004D6E4E6A4F6A506A516A4CC052F026DF57
:1003B200030E4D6E4E6A4F6A506A516A4CC052F03B
:1003C2001DDF040E4D6E4E6A4F6A506A516A4CC070
:1003D20052F014DF050E4D6E4E6A4F6A506A516A32
:1003E2004CC052F00BDF4D6AFF0E4E6ED4DE12008F
:1003F200E00E176E040E186E360E196E000E1A6E8F
:10040200FF0E1B6EFF0E1C6E000E1D6E000E1E6E8A
:10041200FF0E2E6EFF0E2F6E000E306E000E316E2E
:10042200FF0E326EFF0E336E000E346E000E356E0E
:10043200AC8A900EAB6E948E949C9EAA03D0AECFE3
:0604420000F0FBD71200E0
:10044800010E456E010E466E060E476E070E486E8B
:10045800060E496EB90E4A6E40DF800E4D6EFF0ED5
:100468004E6E96DEFF0E416EFF0E426E436E446E78
:100478004D6AFF0E4E6EFF0E4F6EFF0E506EFF0E52
:10048800516EFF0E526E61DE010E4D6E41C04EF090
:1004980042C04FF043C050F044C051F0FF0E526EBE
:1004A80054DE4D6A020E4E6E020E4F6E000E506EF6
:1004B800516EFF0E526E9FDE010E4D6E500E4E6E47
:1004C800000E4F6E506E516EFF0E526E94DE4D6AE6
:0804D800FF0E4E6E5DDE120006
:0E04E000ACB202D00000FCD736C0ADFF120057
:1004EE00926A936A946AF28EF28CF28AF18EF18C91
:1004FE00F18AF184F098F086F288AB8EAB9CAC98C2
:10050E00948EAC84400EAF6E400EAF6EAC846ADF3C
:10051E0093869394D58ED59CD59AD596D584D5822F
:10052E00D5808BDF2A6A2B6A2D6A2C6A296A010E06
:08053E00276E000E286E12006A
:100546000F0140B704D0F10E6F166F860FD030B78B
:1005560005D0F10E6F16060E6F1208D020B704D024
:10056600F10E6F166F8402D0006A45D0030E3D145B
:10057600606E3DB610D0610E536E0F0E546E36C0CF
:1005860055F037C056F038C057F039C058F0F70E5E
:10059600596E63DD0FD0610E536E0F0E546E36C06A
:1005A60055F037C056F038C057F039C058F0FF0E36
:1005B600596E53DD3CC065FF3DAC658C660E3F6EE3
:1005C6000F0E406E3E6A3C503E5C10E23E503F24A9
:1005D600E16E000E4020E26E3E503A24E96E000EB7
:1005E6003B20EA6EEECFE6FF3E2AEDD76086F10E9F
:0805F6006F16FF0E006E1200EB
:1005FE000900F5CFE6FF0006FBE10106F9E1120066
:10060E00016A026A800E0218006E800E005C02E122
:10061E00080E015C0AE21F0E0124E16E000E02209C
:0C062E00E26EE66A014A022AEDD71200D3
:10063A0059DFE8DF2D5202E0010E256E2C5202E04E
:10064A00010E246E29521CE0274A282A800E000A2D
:10065A00006E800E2818005C02E12750120804E29E
:10066A00010E276E000E286E810E366E34DFAA0E3A
:10067A00366E31DF27C036F02EDF27C036F02BDF8B
:10068A00880E366E000E376E000E386E000E396E0A
:10069A001F0E3A6E000E3B6E010E3C6EFC0E3D6E56
:0606AA004DDFC7D7FFD7AA
:020000040030CA
:0D000100220F0EFFFF81FF0FC00FE00F4028
:00000001FF
