:040000001BEF03F0FF
:1000080000C016F001C015F0F0A004D0010E226E59
:10001800F0901DD0F2A204D0010E196EF29217D002
:10002800F2A415D0010E4424006E000E4520016E86
:1000380000C044F001C045F04550000802E14450BA
:10004800260804E2010E176E446A456AF29416C047
:0800580000F015C001F01100D9
:1000600069C003F06AC004F06BC005F06CC006F014
:1000700000016DA72CD003C002F00232029E0232B2
:10008000029E0232029E050E016E04C000F0015075
:1000900004E000360090FF0FFBD767C0E1FF68C0A7
:1000A000E2FF00500210E66E674B682B050E016EF2
:1000B00003C000F0015004E000360090FF0FFBD7B2
:1000C00067C0E1FF68C0E2FF00C0E6FF43D0050E55
:1000D000006E05C002F0005004E00232029EFF0FE5
:1000E000FBD7000106C000F00036009000360090FB
:1000F0000036009067C0E1FF68C0E2FF00500210C8
:10010000E66E674B682B05C000F0003600900036A5
:10011000009000360090E00E0016080E0010016EF0
:10012000030E0514006E67C0E1FF68C0E2FF0050D7
:100130000110E66E674B682B67C0E1FF68C0E2FF05
:1001400004C0E6FF674B682B67C0E1FF68C0E2FFB1
:0601500003C0E6FF1200EF
:1001560066D0000E0001676F0F0E686F62C069F00F
:1001660063C06AF064C06BF065C06CF066C06DF089
:1001760074DF66D0040E0001676F0F0E686F62C0F1
:1001860069F063C06AF064C06BF065C06CF066C06D
:100196006DF063DF55D0080E0001676F0F0E686FB4
:1001A60062C069F063C06AF064C06BF065C06CF051
:1001B60066C06DF052DF44D00C0E0001676F0F0E63
:1001C600686F62C069F063C06AF064C06BF065C0B6
:1001D6006CF066C06DF041DF33D0100E0001676F22
:1001E6000F0E686F62C069F063C06AF064C06BF09E
:1001F60065C06CF066C06DF030DF22D0140E0001D1
:10020600676F0F0E686F62C069F063C06AF064C002
:100216006BF065C06CF066C06DF01FDF11D0000199
:100226006151000A96E06151010AA4E06151020A97
:10023600B2E06151030AC0E06151040ACEE0DED7A4
:020246001200A4
:1002480000016151000A10E1180E676F0F0E686F08
:1002580062C069F063C06AF064C06BF065C06CF09E
:1002680066C06DF0F9DE10D01C0E0001676F0F0E2E
:10027800686F62C069F063C06AF064C06BF065C003
:0A0288006CF066C06DF0E8DE1200B5
:10029200000162530AE061C06FFFE00E6E14016E4E
:1002A2000150611901E0F9D702D061C06FFF12005D
:1002B200000161076207630764076507060E006EA7
:1002C20061C070FF005004E070367090FF0FFBD7E2
:1002D2006251701263C071FF713671907136719004
:1002E200713671906551711266B501D0718C66A13B
:1002F20001D0718E64C072FF66A301D0728C1200AD
:1003020093949386800E0001616FFF0E626FC0DFCF
:1003120057C061F058C062F059C063F05AC064F02F
:100322005BC065F05CC066F0C3DF600E5C14606E9B
:10033200100E5C14016E0150100AD8B4608460CFB4
:1003420050FF616B626B636B646B656BF70E666F7C
:100352007ADF010E0001616F626B636B646B656B28
:10036200F70E666F70DF600E5C14006E9F0E001059
:10037200016E0FD0F70E5D6EF70E5E6E11D0FF0E9E
:100382005D6EFF0E5E6E0CD0FF0E5D6EF70E5E6E42
:1003920007D00150DF0AEEE00150BF0AF0E0F4D7C7
:1003A2000001616B626B636B646B656B5DC066F0D1
:1003B200D1DE010E0001616F626B636B646B656B72
:1003C2005DC066F0C7DE020E0001616F626B636B97
:1003D200646B656B5EC066F0BDDE030E0001616F8B
:1003E200626B636B646B656B5EC066F0B3DE040EBA
:1003F2000001616F626B636B646B656B5EC066F07C
:10040200A9DE050E0001616F626B636B646B656B45
:100412005EC066F09FDE0001616BFF0E626F38DF27
:020422001200C6
:10042400010E576E010E586E060E596E070E5A6E67
:10043400060E5B6EB90E5C6E62DF800E616FFF0E9E
:10044400626F25DFFF0E536EFF0E546E556E566EAF
:10045400616BFF0E626FFF0E636FFF0E646FFF0E22
:10046400656FFF0E666FEEDE010E0001616F53C013
:1004740062F054C063F055C064F056C065F0FF0EDE
:10048400666FE0DE0001616B020E626F020E636F45
:10049400000E646F656FFF0E666F5BDE010E000178
:1004A400616F500E626F000E636F646F656FFF0EB5
:1004B400666F4FDE0001616BFF0E626FE8DE1200B3
:1004C4000900F5CFE6FF0006FBE10106F9E11200A1
:1004D400926A936A946A896A8A6A8B6AF28EF28C47
:1004E400F28AF18EF18CF18AF184F098F086F28828
:1004F400948E949C400EAF6EAC84AC98AB8EAC8A58
:10050400AB88AC9CAB9C93869394D58ED58CD59AB2
:10051400D596070ED51284DF446A456A226A196AA1
:0E052400176A416A010E426E000E436E12000D
:0A053200000E9EBA010E006E1200CA
:10053C00016A026A800E0218006E800E005C02E1F5
:10054C00080E015C0AE21A0E0124E16E000E022074
:0C055C00E26EE66A014A022AEDD71200A6
:100568000F0140B704D0F10E6F166F860FD030B769
:1005780005D0F10E6F16060E6F1208D020B704D002
:10058800F10E6F166F8402D0006A47D0030E4F1425
:10059800606E4FB611D0610E0001676F0F0E686F65
:1005A80048C069F049C06AF04AC06BF04BC06CF0B3
:1005B800F70E6D6F51DD10D0610E0001676F0F0EE1
:1005C800686F48C069F049C06AF04AC06BF04BC018
:1005D8006CF0FF0E6D6F40DD4EC065FF4FAC658C53
:1005E800660E516E0F0E526E506A4E50505C10E2FD
:1005F80050505124E16E000E5220E26E50504C24AF
:10060800E96E000E4D20EA6EEECFE6FF502AEDD7D8
:0C0618006086F10E6F16FF0E006E1200DF
:10062400AECF01F0ABA202D0AB98AB8801C000F012
:020634001200B2
:100636004EDF81DF2250010AD8B42080010E196EE8
:100646001952D8A420821750010A21E11850000837
:1006560008E2232A23500A0803E22084236A186A40
:1006660015D0236A424A432A800E000A006E800E85
:100676004318005C02E14250120804E2010E426E89
:10068600000E436E8288010EAD6E8298176A4EDFA9
:10069600005251E0240E466E000E476E1850462654
:1006A600D8B0472ABCDF46C0E1FF47C0E2FF00C022
:1006B600E6FF182A18501D0A3EE128C001F0006A1C
:1006C60027500014036E01C004F0000E041604C087
:1006D60000F0016A00C01BF02CC001F0006A2B502C
:1006E6000014036E01C004F0000E041604C000F0EE
:1006F600016A00C01CF030C001F0006A2F500014DF
:10070600036E01C004F0000E041604C000F0016A76
:1007160000C01DF034C001F0006A33500014036EAF
:1007260001C004F0000E041604C000F0016A00C007
:100736001EF0010E416E4150010A13E1880E486E0B
:10074600000E496E000E4A6E000E4B6E1A0E4C6E6F
:10075600000E4D6E010E4E6EFC0E4F6E02DF186AD5
:06076600416A67D7FFD7CE
:020000040030CA
:0D000100220F0EFFFF81FF0FC00FE00F4028
:00000001FF
