:040000005CEF03F0BE
:1000080000C016F001C015F0F0A004D0010E1F6E5C
:10001800F0901FD0F2A205D0010E0001D26FF2922B
:1000280018D0F2A416D00001010EE425006E000ECF
:10003800E521016E00C0E4F001C0E5F0E5510008DB
:1000480002E1E451260804E2010ED36FE46BE56B8C
:0C005800F29416C000F015C001F0110079
:1000640009C103F00AC104F00BC105F00CC106F08C
:1000740001010DA72CD003C002F00232029E02320D
:10008400029E0232029E050E016E04C000F0015071
:1000940004E000360090FF0FFBD707C1E1FF08C161
:1000A400E2FF00500210E66E074B082B050E016EAE
:1000B40003C000F0015004E000360090FF0FFBD7AE
:1000C40007C1E1FF08C1E2FF00C0E6FF43D0050E0F
:1000D400006E05C002F0005004E00232029EFF0FE1
:1000E400FBD7010106C000F00036009000360090F6
:1000F4000036009007C1E1FF08C1E2FF0050021082
:10010400E66E074B082B05C000F000360090003661
:10011400009000360090E00E0016080E0010016EEC
:10012400030E0514006E07C1E1FF08C1E2FF005091
:100134000110E66E074B082B07C1E1FF08C1E2FF7F
:1001440004C0E6FF074B082B07C1E1FF08C1E2FF2B
:0601540003C0E6FF1200EB
:10015A0066D0000E0101076F0F0E086F02C109F188
:10016A0003C10AF104C10BF105C10CF106C10DF17D
:10017A0074DF66D0040E0101076F0F0E086F02C10B
:10018A0009F103C10AF104C10BF105C10CF106C161
:10019A000DF163DF55D0080E0101076F0F0E086FCE
:1001AA0002C109F103C10AF104C10BF105C10CF145
:1001BA0006C10DF152DF44D00C0E0101076F0F0E7C
:1001CA00086F02C109F103C10AF104C10BF105C1AB
:1001DA000CF106C10DF141DF33D0100E0101076F9A
:1001EA000F0E086F02C109F103C10AF104C10BF134
:1001FA0005C10CF106C10DF130DF22D0140E010148
:10020A00076F0F0E086F02C109F103C10AF104C199
:10021A000BF105C10CF106C10DF11FDF11D001016F
:10022A000151000A96E00151010AA4E00151020AB3
:10023A00B2E00151030AC0E00151040ACEE0DED760
:02024A001200A0
:10024C0001010151000A10E1180E076F0F0E086F23
:10025C0002C109F103C10AF104C10BF105C10CF192
:10026C0006C10DF1F9DE10D01C0E0101076F0F0E47
:10027C00086F02C109F103C10AF104C10BF105C1F8
:0A028C000CF106C10DF1E8DE1200CE
:10029600010102530AE001C16FFFE00E6E14016E08
:1002A6000150011901E0F9D702D001C16FFF120018
:1002B600010101070207030704070507060E006E82
:1002C60001C170FF005004E070367090FF0FFBD73D
:1002D6000251701203C171FF7136719071367190BF
:1002E600713671900551711206B501D0718C06A157
:1002F60001D0718E04C172FF06A301D0728C120068
:1003060093949386800E0101016FFF0E026FC0DF8A
:10031600F7C001F1F8C002F1F9C003F1FAC004F127
:10032600FBC005F1FCC006F1C3DF600E0001FC1541
:10033600606E100EFC15016E0150100AD8B4608470
:1003460060CF50FF0101016B026B036B046B056B01
:10035600F70E066F78DF010E0101016F026B036B6A
:10036600046B056BF70E066F6EDF600E0001FC1561
:10037600006E9F0E0010016E0FD0F70EFD6FF70E88
:10038600FE6F11D0FF0EFD6FFF0EFE6F0CD0FF0E3D
:10039600FD6FF70EFE6F07D00150DF0AEEE0015049
:1003A600BF0AF0E0F4D70101016B026B036B046B2B
:1003B600056BFDC006F1CEDE010E0101016F026B79
:1003C600036B046B056BFDC006F1C4DE020E010172
:1003D600016F026B036B046B056BFEC006F1BADEA0
:1003E600030E0101016F026B036B046B056BFEC00C
:1003F60006F1B0DE040E0101016F026B036B046BA4
:10040600056BFEC006F1A6DE050E0101016F026B4B
:10041600036B046B056BFEC006F19CDE0101016BEC
:08042600FF0E026F35DF12002A
:10042E00010E0001F76F010EF86F060EF96F070E41
:10043E00FA6F060EFB6FB90EFC6F5EDF800E016F5A
:10044E00FF0E026F21DFFF0E0001F36FFF0EF46F40
:10045E00F56FF66F0101016BFF0E026FFF0E036F5A
:10046E00FF0E046FFF0E056FFF0E066FE8DE010E26
:10047E000101016FF3C002F1F4C003F1F5C004F104
:10048E00F6C005F1FF0E066FDADE0101016B020EFA
:10049E00026F020E036F000E046F056FFF0E066FE4
:1004AE0055DE010E0101016F500E026F000E036F3B
:1004BE00046F056FFF0E066F49DE0101016BFF0E23
:0604CE00026FE2DE1200E5
:1004D400A00E0001E06F050EE16FE80EE26F000E62
:1004E400E36FA60ED46F060ED56F000ED66F000E06
:1004F400D76FDA0EDC6F050EDD6F000EDE6F000EB7
:10050400DF6FFF0ED86FFF0ED96F000EDA6F000E8B
:10051400DB6FAC8A900EAB6E948E949C9EAA03D033
:08052400AECF00F0FBD712007E
:10052C000900F5CFE6FF0006FBE10106F9E1120038
:10053C00926A936A946A896A8A6A8B6AF28EF28CDE
:10054C00F28AF18EF18CF18AF184F098F086F288BF
:10055C00948E949C400EAF6EAC84AC98AB8EAC8AEF
:10056C00AB88AC9CAB9C400EAF6EAC84ADDF93867D
:10057C009394D58ED58CD59AD596070ED51251DF7E
:10058C000001E46BE56B1F6AD26BD36B3D6ACF6BDA
:04059C00D06B12000E
:0E05A000ACB202D00000FCD7E8C0ADFF1200E4
:1005AE00016A026A800E0218006E800E005C02E183
:1005BE00080E015C0AE2170E0124E16E000E022005
:0C05CE00E26EE66A014A022AEDD7120034
:0A05DA00000E9EBA010E006E120022
:1005E4000F0140B704D0F10E6F166F860FD030B7ED
:1005F40005D0F10E6F16060E6F1208D020B704D086
:10060400F10E6F166F8402D0006A4AD0030E000107
:10061400EF15606EEFB711D0610E0101076F0F0E79
:10062400086FE8C009F1E9C00AF1EAC00BF1EBC0B8
:100634000CF1F70E0D6F14DD10D0610E0101076F80
:100644000F0E086FE8C009F1E9C00AF1EAC00BF126
:10065400EBC00CF1FF0E0D6F03DDEEC065FF000172
:10066400EFBD01D0658C660EF16F0F0EF26FF06B6B
:10067400EE51F05D10E2F051F125E16E000EF22131
:10068400E26EF051EC25E96E000EED21EA6EEECF3C
:10069400E6FFF02BEDD76086F10E6F16FF0E006EAD
:0206A400120042
:1006A600AECF01F0ABA202D0AB98AB8801C000F090
:0206B600120030
:1006B80041DF79DF1F50010AD8B41D80010E000107
:1006C800D26FD253D8A41D82D351010A5CE1D15113
:1006D800000808E2CE2BCE510A0803E21D84CE6B37
:1006E800D16B4FD0CE6BCF4BD02B800ED019006E74
:1006F800800E000A005C02E1120ECF5D02E3CF6BB0
:10070800D06B810EE86F48DFAA0E0001E86F44DF66
:10071800CFC000F0D0C001F0000E0001D0BFFF0E26
:10072800026E036E00360090013602360336380E2C
:100738000024F66E0A0E0120F76E000E0220F86EF5
:100748000900F5CFE8F028DFCFC000F0D0C001F0F5
:10075800000E0001D0BFFF0E026E036E003600903F
:10076800013602360336380E0024F66E0A0E0120D2
:10077800F76E000E0220F86E0900F5CFE8F00CDFE6
:1007880082780001D36B25DF0052D8B436D1200E11
:10079800E66F000EE76FD151E627D8B0E72B7FDF71
:1007A800E6C0E1FFE7C0E2FF00C0E6FF0001D12B91
:1007B800D1511D0AD8A421D1CFC017F0030E026E63
:1007C800CFC000F0D0C001F0025005E00036009024
:1007D8000136FF0FFAD73E0E0024E16E000E01200D
:1007E800E26E24C001F0006A23500014036E01C0B9
:1007F80004F0000E041604C000F0016A00C0E6FF11
:1008080001C0E6FF030E026ECFC000F0D0C001F0B9
:10081800025005E0003600900136FF0FFAD73E0E71
:100828000024056E000E0120066E05C0E9FF06C013
:10083800EAFFEECF03F0EECF04F004C000F0000EA4
:1008480004BEFF0E016E00C018F005C0E9FF06C027
:10085800EAFFFF0EEE14196E020E0524E16E000E7B
:100868000620E26E24C001F0006A23500014036ED3
:1008780001C004F0000E041604C000F0016A00C0B4
:10088800E6FF01C0E6FF030E026ECFC000F0D0C045
:1008980001F0025005E0003600900136FF0FFAD74C
:1008A8003E0E0024056E000E0120066E020E052481
:1008B800E96E000E0620EA6EEECF03F0EECF04F0EC
:1008C80004C000F0000E04BEFF0E016E00C019F057
:1008D800020E0524E96E000E0620EA6EFF0EEE14E5
:1008E8001A6E040E0524E16E000E0620E26E2CC07E
:1008F80001F0006A2B500014036E01C004F0000ED2
:10090800041604C000F0016A00C0E6FF01C0E6FF5B
:10091800030E026ECFC000F0D0C001F0025005E017
:10092800003600900136FF0FFAD73E0E0024056E00
:10093800000E0120066E040E0524E96E000E062046
:10094800EA6EEECF03F0EECF04F004C000F0000E24
:1009580004BEFF0E016E00C01AF0040E0524E96EF5
:10096800000E0620EA6EFF0EEE141B6E060E05241E
:10097800E16E000E0620E26E30C001F0006A2F50D2
:100988000014036E01C004F0000E041604C000F049
:10099800016A00C0E6FF01C0E6FF030E026ECFC089
:1009A80000F0D0C001F0025005E00036009001369A
:1009B800FF0FFAD73E0E0024056E000E0120066ECA
:1009C800060E0524E96E000E0620EA6EEECF03F04F
:1009D800EECF04F004C000F0000E04BEFF0E016E5E
:1009E80000C01BF0060E0524E96E000E0620EA6E14
:1009F800FF0EEE141C6E010E3D6E3D50010A16E10D
:100A08000001880EE86F000EE96F000EEA6F000E15
:100A1800EB6F170EEC6F000EED6F010EEE6FFC0E14
:100A2800EF6FDCDD827A0001D16B3D6A42D6FFD7D9
:100A38000700080009000A000B000C000D000E005A
:100A48000F0010001100120013001400150016000A
:040A5800170018006B
:020000040030CA
:0D000100220F0EFFFF81FF0FC00FE00F4028
:00000001FF
