:04000000E7EF02F034
:1000080000C016F001C015F0F0A004D0010E216E5A
:10001800F0901DD0F2A204D0010E176EF29217D004
:10002800F2A415D0010E2424006E000E2520016EC6
:1000380000C024F001C025F02550000802E124503A
:10004800640804E2010E186E246A256AF29416C048
:0800580000F015C001F01100D9
:1000600045C003F046C004F047C005F048C006F0A4
:1000700049A62CD003C002F00232029E0232029E38
:100080000232029E050E016E04C000F0015004E031
:1000900000360090FF0FFBD743C0E1FF44C0E2FFF2
:1000A00000500210E66E434A442A050E016E03C05A
:1000B00000F0015004E000360090FF0FFBD743C072
:1000C000E1FF44C0E2FF00C0E6FF42D0050E006E33
:1000D00005C002F0005004E00232029EFF0FFBD781
:1000E00006C000F000360090003600900036009008
:1000F00043C0E1FF44C0E2FF00500210E66E434AF5
:10010000442A05C000F0003600900036009000360A
:100110000090E00E0016080E0010016E030E05148C
:10012000006E43C0E1FF44C0E2FF00500110E66EE4
:10013000434A442A43C0E1FF44C0E2FF04C0E6FF53
:10014000434A442A43C0E1FF44C0E2FF03C0E6FF44
:0201500012009B
:100152003D50000A10E1180E436E0F0E446E3EC071
:1001620045F03FC046F040C047F041C048F042C0B1
:1001720049F075DF0FD01C0E436E0F0E446E3EC069
:1001820045F03FC046F040C047F041C048F042C091
:0601920049F065DF1200D8
:100198003E520AE03DC06FFFE00E6E14016E015042
:0E01A8003D1801E0F9D702D03DC06FFF1200F4
:1001B6003D063E063F0640064106060E006E3DC061
:1001C60070FF005004E070367090FF0FFBD73E5072
:1001D60070123FC071FF7136719071367190713631
:1001E60071904150711242A4718C42B0718E40C020
:0801F60072FF42B2728C12008C
:1001FE0060D0000E436E0F0E446E3EC045F03FC001
:10020E0046F040C047F041C048F042C049F021DFFF
:10021E0060D0040E436E0F0E446E3EC045F03FC0DC
:10022E0046F040C047F041C048F042C049F011DFEF
:10023E0050D0080E436E0F0E446E3EC045F03FC0C8
:10024E0046F040C047F041C048F042C049F001DFDF
:10025E0040D00C0E436E0F0E446E3EC045F03FC0B4
:10026E0046F040C047F041C048F042C049F0F1DED0
:10027E0030D0100E436E0F0E446E3EC045F03FC0A0
:10028E0046F040C047F041C048F042C049F0E1DEC0
:10029E0020D0140E436E0F0E446E3EC045F03FC08C
:1002AE0046F040C047F041C048F042C049F0D1DEB0
:1002BE0010D03D50000A9DE03D50010AAAE03D508D
:1002CE00020AB7E03D50030AC4E03D50040AD1E0F3
:0402DE00E0D7120053
:1002E20093949386800E3D6EFF0E3E6E54DF35C0B2
:1002F2003DF036C03EF037C03FF038C040F039C064
:1003020041F03AC042F056DF600E3A14606E100EB1
:100312003A14016E0150100AD8B4608460CF50FFC5
:100322003D6A3E6A3F6A406A416AF70E426E10DFDA
:10033200010E3D6E3E6A3F6A406A416AF70E426EA6
:1003420007DF600E3A14006E9F0E0010016E0FD090
:10035200F70E3B6EF70E3C6E11D0FF0E3B6EFF0E9A
:100362003C6E0CD0FF0E3B6EF70E3C6E07D0015078
:10037200DF0AEEE00150BF0AF0E0F4D73D6A3E6AC0
:100382003F6A406A416A3BC042F038DF010E3D6E6F
:100392003E6A3F6A406A416A3BC042F02FDF020E6A
:1003A2003D6E3E6A3F6A406A416A3CC042F026DFC7
:1003B200030E3D6E3E6A3F6A406A416A3CC042F0AB
:1003C2001DDF040E3D6E3E6A3F6A406A416A3CC0D0
:1003D20042F014DF050E3D6E3E6A3F6A406A416A92
:1003E2003CC042F00BDF3D6AFF0E3E6ED4DE1200CF
:1003F200010E356E010E366E060E376E070E386E22
:10040200060E396EB90E3A6E6BDF800E3D6EFF0E30
:100412003E6EC1DEFF0E316EFF0E326E336E346EF3
:100422003D6AFF0E3E6EFF0E3F6EFF0E406EFF0EE8
:10043200416EFF0E426E8CDE010E3D6E31C03EF00B
:1004420032C03FF033C040F034C041F0FF0E426E84
:100452007FDE3D6A020E3E6E020E3F6E000E406E61
:10046200416EFF0E426ECADE010E3D6E500E3E6EB2
:10047200000E3F6E406E416EFF0E426EBFDE3D6A61
:08048200FF0E3E6E88DE120041
:10048A000F0140B704D0F10E6F166F860FD030B748
:10049A0005D0F10E6F16060E6F1208D020B704D0E1
:1004AA00F10E6F166F8402D0006A45D0030E2D1428
:1004BA00606E2DB610D0610E436E0F0E446E26C0CC
:1004CA0045F027C046F028C047F029C048F0F70E8B
:1004DA00496EC1DD0FD0610E436E0F0E446E26C009
:1004EA0045F027C046F028C047F029C048F0FF0E63
:1004FA00496EB1DD2CC065FF2DAC658C660E2F6E82
:10050A000F0E306E2E6A2C502E5C10E22E502F24C5
:10051A00E16E000E3020E26E2E502A24E96E000EA3
:10052A002B20EA6EEECFE6FF2E2AEDD76086F10E7B
:08053A006F16FF0E006E1200A7
:10054200926A936A946AF28EF28CF28AF18EF18C3C
:10055200F18AF184F098F086F288AB8EAB9CAC986D
:10056200948EAC84400EAF6E93869394D58ED59CB8
:10057200D59AD596D584D582D5803ADF246A256A64
:10058200216A176A186A010E226E000E236E12008B
:100592000900F5CFE6FF0006FBE10106F9E11200D2
:1005A200016A026A800E0218006E800E005C02E18F
:1005B200080E015C0AE2190E0124E16E000E02200F
:0C05C200E26EE66A014A022AEDD7120040
:1005CE00B9DFE8DF215202E0010E1F6E175202E082
:1005DE00010E1E6E185200E0880E266E000E276E5B
:1005EE00000E286E000E296E190E2A6E000E2B6E4E
:0E05FE00010E2C6EFC0E2D6E41DFE3D7FFD7F1
:020000040030CA
:0D000100220F0EFFFF81FF0FC00FE00F4028
:00000001FF
