:040000002CEF03F0EE
:1000080000C016F001C015F0F0A004D0010E266E55
:10001800F0901DD0F2A204D0010E176EF29217D004
:10002800F2A415D0010E2F24006E000E3020016EB0
:1000380000C02FF001C030F03050000802E12F500E
:10004800260804E2010E186E2F6A306AF29416C070
:0800580000F015C001F01100D9
:1000600058C003F059C004F05AC005F05BC006F058
:100070005CA62CD003C002F00232029E0232029E25
:100080000232029E050E016E04C000F0015004E031
:1000900000360090FF0FFBD756C0E1FF57C0E2FFCC
:1000A00000500210E66E564A572A050E016E03C034
:1000B00000F0015004E000360090FF0FFBD756C05F
:1000C000E1FF57C0E2FF00C0E6FF42D0050E006E20
:1000D00005C002F0005004E00232029EFF0FFBD781
:1000E00006C000F000360090003600900036009008
:1000F00056C0E1FF57C0E2FF00500210E66E564ABC
:10010000572A05C000F000360090003600900036F7
:100110000090E00E0016080E0010016E030E05148C
:10012000006E56C0E1FF57C0E2FF00500110E66EBE
:10013000564A572A56C0E1FF57C0E2FF04C0E6FF07
:10014000564A572A56C0E1FF57C0E2FF03C0E6FFF8
:0201500012009B
:1001520060D0000E566E0F0E576E51C058F052C04E
:1001620059F053C05AF054C05BF055C05CF077DFD1
:1001720060D0040E566E0F0E576E51C058F052C02A
:1001820059F053C05AF054C05BF055C05CF067DFC1
:1001920050D0080E566E0F0E576E51C058F052C016
:1001A20059F053C05AF054C05BF055C05CF057DFB1
:1001B20040D00C0E566E0F0E576E51C058F052C002
:1001C20059F053C05AF054C05BF055C05CF047DFA1
:1001D20030D0100E566E0F0E576E51C058F052C0EE
:1001E20059F053C05AF054C05BF055C05CF037DF91
:1001F20020D0140E566E0F0E576E51C058F052C0DA
:1002020059F053C05AF054C05BF055C05CF027DF80
:1002120010D05050000A9DE05050010AAAE0505000
:10022200020AB7E05050030AC4E05050040AD1E079
:04023200E0D71200FF
:100236005050000A10E1180E566E0F0E576E51C040
:1002460058F052C059F053C05AF054C05BF055C034
:100256005CF003DF0FD01C0E566E0F0E576E51C0AA
:1002660058F052C059F053C05AF054C05BF055C014
:060276005CF0F3DE120053
:10027C0051520AE050C06FFFE00E6E14016E015037
:0E028C00501801E0F9D702D050C06FFF1200E9
:10029A0050065106520653065406060E006E50C00A
:1002AA0070FF005004E070367090FF0FFBD751507A
:1002BA00701252C071FF7136719071367190713639
:1002CA0071905450711255A4718C55B0718E53C0EF
:0802DA0072FF55B2728C120094
:1002E20093949386800E506EFF0E516EC6DF48C007
:1002F20050F049C051F04AC052F04BC053F04CC0CC
:1003020054F04DC055F0C8DF600E4D14606E100EF3
:100312004D14016E0150100AD8B4608460CF50FFB2
:10032200506A516A526A536A546AF70E556E82DFF6
:10033200010E506E516A526A536A546AF70E556E34
:1003420079DF600E4D14006E9F0E0010016E0FD00B
:10035200F70E4E6EF70E4F6E11D0FF0E4E6EFF0E61
:100362004F6E0CD0FF0E4E6EF70E4F6E07D001503F
:10037200DF0AEEE00150BF0AF0E0F4D7506A516A9A
:10038200526A536A546A4EC055F0E2DE010E506E54
:10039200516A526A536A546A4EC055F0D9DE020E4F
:1003A200506E516A526A536A546A4FC055F0D0DE99
:1003B200030E506E516A526A536A546A4FC055F026
:1003C200C7DE040E506E516A526A536A546A4FC0B5
:1003D20055F0BEDE050E506E516A526A536A546A77
:1003E2004FC055F0B5DE506AFF0E516E46DF120067
:1003F200010E486E010E496E060E4A6E070E4B6ED6
:10040200060E4C6EB90E4D6E6BDF800E506EFF0EF7
:10041200516E33DFFF0E446EFF0E456E466E476E21
:10042200506AFF0E516EFF0E526EFF0E536EFF0E9C
:10043200546EFF0E556EFEDE010E506E44C051F03A
:1004420045C052F046C053F047C054F0FF0E556EFF
:10045200F1DE506A020E516E020E526E000E536EA3
:10046200546EFF0E556E74DE010E506E500E516EBC
:10047200000E526E536E546EFF0E556E69DE506A58
:08048200FF0E516EFADE1200BC
:10048A004A0E356E050E366E390E376E000E386E10
:10049A00460E2B6E060E2C6E000E2D6E000E2E6E64
:1004AA00840E276E050E286E000E296E000E2A6E27
:1004BA00FF0E1A6EFF0E1B6E000E1C6E000E1D6ED6
:1004CA00AC8A900EAB6E948E949C9EAA03D0AECF4B
:0604DA0000F0FBD7120048
:1004E0000900F5CFE6FF0006FBE10106F9E1120085
:1004F000926A936A946AF28EF28CF28AF18EF18C8F
:10050000F18AF184F098F086F288AB8EAB9CAC98BF
:10051000948EAC84400EAF6E400EAF6EAC84B5DFEF
:1005200093869394D58ED59CD59AD596D584D5822D
:10053000D5805FDF2F6A306A266A176A186A346AC4
:0A054000010E326E000E336E120041
:0E054A00ACB202D00000FCD739C0ADFF1200E9
:10055800016A026A800E0218006E800E005C02E1D9
:10056800080E015C0AE21E0E0124E16E000E022054
:0C057800E26EE66A014A022AEDD712008A
:0A058400000E9EBA010E006E120078
:10058E000F0140B704D0F10E6F166F860FD030B743
:10059E0005D0F10E6F16060E6F1208D020B704D0DC
:1005AE00F10E6F166F8402D0006A45D0030E401410
:1005BE00606E40B610D0610E566E0F0E576E39C07B
:1005CE0058F03AC059F03BC05AF03CC05BF0F70E01
:1005DE005C6E3FDD0FD0610E566E0F0E576E39C03A
:1005EE0058F03AC059F03BC05AF03CC05BF0FF0ED9
:1005FE005C6E2FDD3FC065FF40AC658C660E426EB3
:10060E000F0E436E416A3F50415C10E2415042244E
:10061E00E16E000E4320E26E41503D24E96E000E65
:10062E003E20EA6EEECFE6FF412AEDD76086F10E50
:08063E006F16FF0E006E1200A2
:10064600AECF01F0ABA202D0AB98AB8801C000F0F0
:02065600120090
:100658004BDF7EDF2652D8A424801752D8A42482E8
:10066800185228E01950000808E2312A31500A08C7
:1006780003E22484316A196A1DD0316A324A332A66
:10068800800E000A006E800E3318005C02E13250C2
:10069800120804E2010E326E000E336E810E396EBE
:1006A80050DFAA0E396E4DDF32C039F04ADF32C052
:1006B80039F047DF63DF005201E0C1DF3450010A3F
:1006C80012E1880E396E000E3A6E000E3B6E000E77
:1006D8003C6E1E0E3D6E000E3E6E010E3F6EFC0E11
:0A06E800406E51DF346AB5D7FFD72A
:020000040030CA
:0D000100220F0EFFFF81FF0FC00FE00F4028
:00000001FF
