:040000004BEF02F0D0
:10000800F0A002D0F09006D0F2A202D0F29202D074
:06001800F2B4F2941100A5
:10001E0029C003F02AC004F02BC005F02CC006F056
:10002E002DA62CD003C002F00232029E0232029E96
:10003E000232029E050E016E04C000F0015004E073
:10004E0000360090FF0FFBD727C0E1FF28C0E2FF6C
:10005E0000500210E66E274A282A050E016E03C0D4
:10006E0000F0015004E000360090FF0FFBD727C0D0
:10007E00E1FF28C0E2FF00C0E6FF42D0050E006E91
:10008E0005C002F0005004E00232029EFF0FFBD7C3
:10009E0006C000F00036009000360090003600904A
:1000AE0027C0E1FF28C0E2FF00500210E66E274A8B
:1000BE00282A05C000F00036009000360090003669
:1000CE000090E00E0016080E0010016E030E0514CF
:1000DE00006E27C0E1FF28C0E2FF00500110E66E5F
:1000EE00274A282A27C0E1FF28C0E2FF04C0E6FF06
:1000FE00274A282A27C0E1FF28C0E2FF03C0E6FFF7
:02010E001200DD
:1001100021062206230624062506060E006E21C0AF
:1001200070FF005004E070367090FF0FFBD7225034
:10013000701223C071FF71367190713671907136F3
:1001400071902550711226A4718C26B0718E24C036
:0801500072FF26B2728C12004E
:1001580022520AE021C06FFFE00E6E14016E0150BA
:0E016800211801E0F9D702D021C06FFF12006C
:100176002150000A10E1180E276E0F0E286E22C0BD
:1001860029F023C02AF024C02BF025C02CF026C06D
:100196002DF042DF0FD01C0E276E0F0E286E22C0E8
:1001A60029F023C02AF024C02BF025C02CF026C04D
:0601B6002DF032DF120003
:1001BC0060D0000E276E0F0E286E22C029F023C0CF
:1001CC002AF024C02BF025C02CF026C02DF021DF06
:1001DC0060D0040E276E0F0E286E22C029F023C0AB
:1001EC002AF024C02BF025C02CF026C02DF011DFF6
:1001FC0050D0080E276E0F0E286E22C029F023C097
:10020C002AF024C02BF025C02CF026C02DF001DFE5
:10021C0040D00C0E276E0F0E286E22C029F023C082
:10022C002AF024C02BF025C02CF026C02DF0F1DED6
:10023C0030D0100E276E0F0E286E22C029F023C06E
:10024C002AF024C02BF025C02CF026C02DF0E1DEC6
:10025C0020D0140E276E0F0E286E22C029F023C05A
:10026C002AF024C02BF025C02CF026C02DF0D1DEB6
:10027C0010D02150000A9DE02150010AAAE0215023
:10028C00020AB7E02150030AC4E02150040AD1E06D
:04029C00E0D7120095
:1002A00093949386800E216EFF0E226E55DF19C047
:1002B00021F01AC022F01BC023F01CC024F01DC086
:1002C00025F01EC026F024DF600E1E14606E100E96
:1002D0001E14016E0150100AD8B4608460CF50FF24
:1002E000216A226A236A246A256AF70E266E43DF92
:1002F000010E216E226A236A246A256AF70E266E91
:100300003ADF600E1E14006E9F0E0010016E0FD0BB
:10031000F70E1F6EF70E206E11D0FF0E1F6EFF0E30
:10032000206E0CD0FF0E1F6EF70E206E07D001500E
:10033000DF0AEEE00150BF0AF0E0F4D7216A226A3A
:10034000236A246A256A1FC026F038DF010E216E59
:10035000226A236A246A256A1FC026F02FDF020E54
:10036000216E226A236A246A256A20C026F026DFCD
:10037000030E216E226A236A246A256A20C026F0B1
:100380001DDF040E216E226A236A246A256A20C0BA
:1003900026F014DF050E216E226A236A246A256A7C
:1003A00020C026F00BDF216AFF0E226ED5DE120080
:1003B000010E196E010E1A6E060E1B6E070E1C6ED4
:1003C000060E1D6EB90E1E6E6BDF800E216EFF0EC7
:1003D000226EC2DEFF0E156EFF0E166E176E186EC1
:1003E000216AFF0E226EFF0E236EFF0E246EFF0E9B
:1003F000256EFF0E266EBFDE010E216E15C022F0A7
:1004000016C023F017C024F018C025F0FF0E266E8A
:10041000B2DE216A020E226E020E236E000E246EE0
:10042000256EFF0E266ECADE010E216E500E226E64
:10043000000E236E246E256EFF0E266EBFDE216A2F
:08044000FF0E226E89DE12009E
:10044800926A936A946AF28EF28CF28AF18EF18C37
:10045800F18AF184F098F086F288AB8EAB9CAC9868
:10046800948EAC84400EAF6E93869394D58ED59CB3
:0E047800D59AD596D584D582D58096DF120010
:100486000900F5CFE6FF0006FBE10106F9E11200DF
:04049600D8DFFFD7D5
:020000040030CA
:0D000100220F0EFFFF81FF0FC00FE00F4028
:00000001FF
