:040000004AEF03F0D0
:1000080000C016F001C015F0F0A004D0010E526E29
:10001800F0901DD0F2A204D0010E536EF29217D0C8
:10002800F2A415D0010E5424006E000E5520016E66
:1000380000C054F001C055F05550000802E154507A
:10004800260804E2010E186E546A556AF29416C026
:0800580000F015C001F01100D9
:1000600077C003F078C004F079C005F07AC006F0DC
:1000700000017BA72CD003C002F00232029E0232A4
:10008000029E0232029E050E016E04C000F0015075
:1000900004E000360090FF0FFBD775C0E1FF76C08B
:1000A000E2FF00500210E66E754B762B050E016ED6
:1000B00003C000F0015004E000360090FF0FFBD7B2
:1000C00075C0E1FF76C0E2FF00C0E6FF43D0050E39
:1000D000006E05C002F0005004E00232029EFF0FE5
:1000E000FBD7000106C000F00036009000360090FB
:1000F0000036009075C0E1FF76C0E2FF00500210AC
:10010000E66E754B762B05C000F000360090003689
:10011000009000360090E00E0016080E0010016EF0
:10012000030E0514006E75C0E1FF76C0E2FF0050BB
:100130000110E66E754B762B75C0E1FF76C0E2FFCD
:1001400004C0E6FF754B762B75C0E1FF76C0E2FF79
:0601500003C0E6FF1200EF
:1001560066D0000E0001756F0F0E766F70C077F0D7
:1001660071C078F072C079F073C07AF074C07BF019
:1001760074DF66D0040E0001756F0F0E766F70C0C7
:1001860077F071C078F072C079F073C07AF074C0FD
:100196007BF063DF55D0080E0001756F0F0E766F8A
:1001A60070C077F071C078F072C079F073C07AF0E1
:1001B60074C07BF052DF44D00C0E0001756F0F0E39
:1001C600766F70C077F071C078F072C079F073C046
:1001D6007AF074C07BF041DF33D0100E0001756FEA
:1001E6000F0E766F70C077F071C078F072C079F03C
:1001F60073C07AF074C07BF030DF22D0140E000199
:10020600756F0F0E766F70C077F071C078F072C0A0
:1002160079F073C07AF074C07BF01FDF11D0000153
:100226006F51000A96E06F51010AA4E06F51020A6D
:10023600B2E06F51030AC0E06F51040ACEE0DED788
:020246001200A4
:1002480000016F51000A10E1180E756F0F0E766FDE
:1002580070C077F071C078F072C079F073C07AF02E
:1002680074C07BF0F9DE10D01C0E0001756F0F0E04
:10027800766F70C077F071C078F072C079F073C093
:0A0288007AF074C07BF0E8DE12008B
:10029200000170530AE06FC06FFFE00E6E14016E32
:1002A20001506F1901E0F9D702D06FC06FFF120041
:1002B20000016F077007710772077307060E006E61
:1002C2006FC070FF005004E070367090FF0FFBD7D4
:1002D2007051701271C071FF7136719071367190E8
:1002E200713671907351711274B501D0718C74A111
:1002F20001D0718E72C072FF74A301D0728C120091
:1003020093949386800E00016F6FFF0E706FC0DFB3
:1003120067C06FF068C070F069C071F06AC072F0B7
:100322006BC073F06CC074F0C3DF600E6C15606E4E
:10033200100E6C15016E0150100AD8B4608460CFA3
:1003420050FF6F6B706B716B726B736BF70E746F28
:100352007ADF010E00016F6F706B716B726B736BE2
:10036200F70E746F70DF600E00016C15006E9F0E49
:100372000010016E0FD0F70E6D6FF70E6E6F11D079
:10038200FF0E6D6FFF0E6E6F0CD0FF0E6D6FF70ECE
:100392006E6F07D00150DF0AEEE00150BF0AF0E0B5
:1003A200F4D76F6B706B716B726B736B6DC074F0A3
:1003B200D1DE010E00016F6F706B716B726B736B2C
:1003C2006DC074F0C7DE020E00016F6F706B716B4F
:1003D200726B736B6EC074F0BDDE030E00016F6F43
:1003E200706B716B726B736B6EC074F0B3DE040E64
:1003F20000016F6F706B716B726B736B6EC074F018
:10040200A9DE050E00016F6F706B716B726B736BFF
:100412006EC074F09FDE00016F6BFF0E706F38DFED
:020422001200C6
:10042400010E0001676F010E686F060E696F070EFB
:100434006A6F060E6B6FB90E6C6F61DF800E6F6FA3
:10044400FF0E706F24DFFF0E636FFF0E646F656F26
:10045400666F6F6BFF0E706FFF0E716FFF0E726F22
:10046400FF0E736FFF0E746FEDDE010E00016F6FF0
:1004740063C070F064C071F065C072F066C073F060
:10048400FF0E746FDFDE00016F6B020E706F020EE1
:10049400716F000E726F736FFF0E746F5ADE010E70
:1004A40000016F6F500E706F000E716F726F736F7B
:1004B400FF0E746F4EDE00016F6BFF0E706FE7DE90
:0204C400120024
:1004C600800E466E050E476E580E486E000E496E3B
:1004D600820E4A6E060E4B6E000E4C6E000E4D6E70
:1004E600BA0E4E6E050E4F6E000E506E000E516E19
:1004F600FF0E426EFF0E436E000E446E000E456EFA
:10050600AC8A900EAB6E948E949C9EAA03D0AECF0E
:0605160000F0FBD712000B
:10051C000900F5CFE6FF0006FBE10106F9E1120048
:10052C00926A936A946A896A8A6A8B6AF28EF28CEE
:10053C00F28AF18EF18CF18AF184F098F086F288CF
:10054C00948E949C400EAF6EAC84B7DF93869394DC
:10055C00D58ED58CD59AD596070ED5125DDF546AFB
:10056C00556A526A536A186A226A010E406E000E6E
:04057C00416E1200BA
:0E058000ACB202D00000FCD758C0ADFF120094
:10058E00016A026A800E0218006E800E005C02E1A3
:10059E00080E015C0AE2190E0124E16E000E022023
:0C05AE00E26EE66A014A022AEDD7120054
:0A05BA00000E9EBA010E006E120042
:1005C4000F0140B704D0F10E6F166F860FD030B70D
:1005D40005D0F10E6F16060E6F1208D020B704D0A6
:1005E400F10E6F166F8402D0006A48D0030E5F14B8
:1005F400606E5FB611D0610E0001756F0F0E766FDD
:1006040058C077F059C078F05AC079F05BC07AF0DE
:10061400F70E7B6F23DD10D0610E0001756F0F0E96
:10062400766F58C077F059C078F05AC079F05BC043
:100634007AF0FF0E7B6F12DD5EC065FF5FAC658CE8
:10064400660E0001616F0F0E626F606B5E50605D3D
:1006540010E260516125E16E000E6221E26E60518C
:100664005C24E96E000E5D20EA6EEECFE6FF602B9F
:0E067400EDD76086F10E6F16FF0E006E1200BD
:10068200AECF01F0ABA202D0AB98AB8801C000F0B4
:02069200120054
:100694004BDF7BDF5250010AD8B41F80010E536E2A
:1006A4005352D8A41F821850010A29E11750000898
:1006B40008E2212A21500A0803E21F84216A176AEA
:1006C4001DD0216A404A412A800E000A006E800E25
:1006D4004118005C02E14050120804E2010E406E31
:1006E400000E416E810E586E49DFAA0E586E46DF29
:1006F40040C058F043DF40C058F040DF186A5BDF69
:10070400005251E0230E566E000E576E17505626B7
:10071400D8B0572AB4DF56C0E1FF57C0E2FF00C08B
:10072400E6FF172A17501D0A3EE127C001F0006AB0
:1007340026500014036E01C004F0000E041604C019
:1007440000F0016A00C01AF02BC001F0006A2A50C0
:100754000014036E01C004F0000E041604C000F07F
:10076400016A00C01BF02FC001F0006A2E50001473
:10077400036E01C004F0000E041604C000F0016A08
:1007840000C01CF033C001F0006A32500014036E44
:1007940001C004F0000E041604C000F0016A00C099
:1007A4001DF0010E226E2250010A13E1880E586ECC
:1007B400000E596E000E5A6E000E5B6E190E5C6EC2
:1007C400000E5D6E010E5E6EFC0E5F6EF9DE176A42
:0607D400226A5FD7FFD787
:020000040030CA
:0D000100220F0EFFFF81FF0FC00FE00F4028
:00000001FF
