:0400000053EF03F0C7
:1000080000C016F001C015F0F0A004D0010E1F6E5C
:10001800F0901DD0F2A204D0010E446EF29217D0D7
:10002800F2A415D0010E5624006E000E5720016E62
:1000380000C056F001C057F05750000802E1565072
:10004800260804E2010E456E566A576AF29416C0F5
:0800580000F015C001F01100D9
:100060007BC003F07CC004F07DC005F07EC006F0CC
:1000700000017FA72CD003C002F00232029E0232A0
:10008000029E0232029E050E016E04C000F0015075
:1000900004E000360090FF0FFBD779C0E1FF7AC083
:1000A000E2FF00500210E66E794B7A2B050E016ECE
:1000B00003C000F0015004E000360090FF0FFBD7B2
:1000C00079C0E1FF7AC0E2FF00C0E6FF43D0050E31
:1000D000006E05C002F0005004E00232029EFF0FE5
:1000E000FBD7000106C000F00036009000360090FB
:1000F0000036009079C0E1FF7AC0E2FF00500210A4
:10010000E66E794B7A2B05C000F000360090003681
:10011000009000360090E00E0016080E0010016EF0
:10012000030E0514006E79C0E1FF7AC0E2FF0050B3
:100130000110E66E794B7A2B79C0E1FF7AC0E2FFBD
:1001400004C0E6FF794B7A2B79C0E1FF7AC0E2FF69
:0601500003C0E6FF1200EF
:1001560066D0000E0001796F0F0E7A6F74C07BF0C7
:1001660075C07CF076C07DF077C07EF078C07FF0F9
:1001760074DF66D0040E0001796F0F0E7A6F74C0BB
:100186007BF075C07CF076C07DF077C07EF078C0DD
:100196007FF063DF55D0080E0001796F0F0E7A6F7E
:1001A60074C07BF075C07CF076C07DF077C07EF0C1
:1001B60078C07FF052DF44D00C0E0001796F0F0E2D
:1001C6007A6F74C07BF075C07CF076C07DF077C026
:1001D6007EF078C07FF041DF33D0100E0001796FDA
:1001E6000F0E7A6F74C07BF075C07CF076C07DF020
:1001F60077C07EF078C07FF030DF22D0140E000189
:10020600796F0F0E7A6F74C07BF075C07CF076C084
:100216007DF077C07EF078C07FF01FDF11D000013F
:100226007351000A96E07351010AA4E07351020A61
:10023600B2E07351030AC0E07351040ACEE0DED780
:020246001200A4
:1002480000017351000A10E1180E796F0F0E7A6FD2
:1002580074C07BF075C07CF076C07DF077C07EF00E
:1002680078C07FF0F9DE10D01C0E0001796F0F0EF8
:100278007A6F74C07BF075C07CF076C07DF077C073
:0A0288007EF078C07FF0E8DE12007F
:10029200000174530AE073C06FFFE00E6E14016E2A
:1002A2000150731901E0F9D702D073C06FFF120039
:1002B200000173077407750776077707060E006E4D
:1002C20073C070FF005004E070367090FF0FFBD7D0
:1002D2007451701275C071FF7136719071367190E0
:1002E200713671907751711278B501D0718C78A105
:1002F20001D0718E76C072FF78A301D0728C120089
:1003020093949386800E0001736FFF0E746FC0DFAB
:100312006DC073F06EC074F06FC075F070C076F08F
:1003220071C077F072C078F0C3DF600E7215606E34
:10033200100E7215016E0150100AD8B4608460CF9D
:1003420050FF736B746B756B766B776BF70E786F10
:100352007ADF010E0001736F746B756B766B776BCE
:10036200F70E786F70DF600E00017215006E9F0E3F
:100372000010016E0FD0F70E5D6EF70E5E6E11D09B
:10038200FF0E5D6EFF0E5E6E0CD0FF0E5D6EF70E01
:100392005E6E07D00150DF0AEEE00150BF0AF0E0C6
:1003A200F4D70001736B746B756B766B776B5DC002
:1003B20078F0D0DE010E0001736F746B756B766B93
:1003C200776B5DC078F0C6DE020E0001736F746B4E
:1003D200756B766B776B5EC078F0BCDE030E000146
:1003E200736F746B756B766B776B5EC078F0B2DE91
:1003F200040E0001736F746B756B766B776B5EC066
:1004020078F0A8DE050E0001736F746B756B766B66
:10041200776B5EC078F09EDE0001736BFF0E746F27
:0404220037DF1200AE
:10042600010E00016D6F010E6E6F060E6F6F070EE7
:10043600706F060E716FB90E726F60DF800E736F8C
:10044600FF0E746F23DFFF0E696FFF0E6A6F6B6F0F
:100456006C6F736BFF0E746FFF0E756FFF0E766F0A
:10046600FF0E776FFF0E786FECDE010E0001736FE3
:1004760069C074F06AC075F06BC076F06CC077F036
:10048600FF0E786FDEDE0001736B020E746F020ED4
:10049600756F000E766F776FFF0E786F59DE010E5F
:1004A6000001736F500E746F000E756F766F776F65
:1004B600FF0E786F4DDE0001736BFF0E746FE6DE84
:0204C600120022
:1004C800900E526E050E536E5A0E546E000E556EF7
:1004D800940E466E060E476E000E486E000E496E6C
:1004E800CA0E4E6E050E4F6E000E506E000E516E07
:1004F800FF0E4A6EFF0E4B6E000E4C6E000E4D6ED8
:10050800AC8A900EAB6E948E949C9EAA03D0AECF0C
:0605180000F0FBD7120009
:10051E000900F5CFE6FF0006FBE10106F9E1120046
:10052E00926A936A946A896A8A6A8B6AF28EF28CEC
:10053E00F28AF18EF18CF18AF184F098F086F288CD
:10054E00948E949C400EAF6EAC84AC98AB8EAC8AFD
:10055E00AB88AC9CAB9C400EAF6EAC84AEDF93868A
:10056E009394D58ED58CD59AD596070ED51254DF89
:10057E00566A576A1F6A446A456A3D6A416A426A08
:02058E00120059
:0E059000ACB202D00000FCD75AC0ADFF120082
:10059E00016A026A800E0218006E800E005C02E193
:1005AE00080E015C0AE2170E0124E16E000E022015
:0C05BE00E26EE66A014A022AEDD7120044
:0A05CA00000E9EBA010E006E120032
:1005D4000F0140B704D0F10E6F166F860FD030B7FD
:1005E40005D0F10E6F16060E6F1208D020B704D096
:1005F400F10E6F166F8402D0006A49D0030E000119
:100604006815606E68B710D0610E796F0F0E7A6F3F
:1006140061C07BF062C07CF063C07DF064C07EF09A
:10062400F70E7F6F1BDD10D0610E0001796F0F0E86
:100634007A6F61C07BF062C07CF063C07DF064C0FF
:100644007EF0FF0E7F6F0ADD67C065FF000168BDA5
:1006540001D0658C660E5B6E0F0E5C6E5A6A675134
:100664005A5C10E25A505B24E16E000E5C20E26E8C
:100674005A506525E96E000E6621EA6EEECFE6FF5C
:100684005A2AEDD76086F10E6F16FF0E006E120027
:10069400AECF01F0ABA202D0AB98AB8801C000F0A2
:0206A400120042
:1006A60043DF7ADF1F50010AD8B41D80010E446E65
:1006B6004452D8A41D824550010A58E1435000080F
:1006C60008E2402A40500A0803E21D84406A436A51
:1006D6004CD0406A414A422A800E4218006E800E73
:1006E600000A005C02E1120E415C02E3416A426AC2
:1006F600810E5A6E4ADFAA0E5A6E47DF41C000F0DD
:1007060042C001F0000E42BEFF0E026E036E0036BE
:100716000090013602360336960E0024F66E080E59
:100726000120F76E000E0220F86E0900F5CF5AF090
:100736002CDF41C000F042C001F0000E42BEFF0EA9
:10074600026E036E00360090013602360336960EB0
:100756000024F66E080E0120F76E000E0220F86ED9
:100766000900F5CF5AF011DF8278456A2BDF005277
:1007760075E0200E586E000E596E43505826D8B0BC
:10078600592A85DF58C0E1FF59C0E2FF00C0E6FFE5
:10079600432A43501D0A62E141C017F024C001F00C
:1007A600006A23500014026E01C003F0000E031607
:1007B60003C004F0056A04C03EF005C03FF005C062
:1007C60001F0000E05BEFF0E026E01C018F0FF0E0E
:1007D6000414006E00C019F004C03EF005C03FF0DE
:1007E60001C019F000C01AF02CC001F0006A2B50AD
:1007F6000014026E01C003F0000E031603C004F0DD
:10080600056A04C03EF005C03FF005C000F0000ECA
:1008160005BEFF0E016E00C01AF0FF0E04141B6E1B
:1008260030C001F0006A2F500014026E01C003F0C0
:10083600000E031603C004F0056A04C03EF005C0AE
:100846003FF005C000F0000E05BEFF0E016E00C0B1
:100856001BF0FF0E04141C6E010E3D6E3D50010A86
:1008660015E1880E0001616F000E626F000E636F66
:10087600000E646F170E656F000E666F010E676FD0
:10088600FC0E686FA4DE827A436A3D6A0AD7FFD7F8
:100896000700080009000A000B000C000D000E00FE
:1008A6000F001000110012001300140015001600AE
:0408B600170018000F
:020000040030CA
:0D000100220F0EFFFF81FF0FC00FE00F4028
:00000001FF
