:04000000B2EF04F067
:1000080000C016F001C015F0F0A004D0010E226E59
:10001800F0901ED0F2A204D0010E196EF29218D000
:10002800F2A416D0010E0001B425006E000EB52111
:10003800016E00C0B4F001C0B5F0B551000802E18E
:10004800B451260804E2010E176EB46BB56BF29436
:0A00580016C000F015C001F0110001
:1000620009C103F00AC104F00BC105F00CC106F08E
:1000720001010DA72CD003C002F00232029E02320F
:10008200029E0232029E050E016E04C000F0015073
:1000920004E000360090FF0FFBD707C1E1FF08C163
:1000A200E2FF00500210E66E074B082B050E016EB0
:1000B20003C000F0015004E000360090FF0FFBD7B0
:1000C20007C1E1FF08C1E2FF00C0E6FF43D0050E11
:1000D200006E05C002F0005004E00232029EFF0FE3
:1000E200FBD7010106C000F00036009000360090F8
:1000F2000036009007C1E1FF08C1E2FF0050021084
:10010200E66E074B082B05C000F000360090003663
:10011200009000360090E00E0016080E0010016EEE
:10012200030E0514006E07C1E1FF08C1E2FF005093
:100132000110E66E074B082B07C1E1FF08C1E2FF81
:1001420004C0E6FF074B082B07C1E1FF08C1E2FF2D
:0601520003C0E6FF1200ED
:10015800010101070207030704070507060E006EE1
:1001680001C170FF005004E070367090FF0FFBD79C
:100178000251701203C171FF71367190713671901E
:10018800713671900551711206B501D0718C06A1B6
:1001980001D0718E04C172FF06A301D0728C1200C7
:1001A800010102530AE001C16FFFE00E6E14016EF7
:1001B8000150011901E0F9D702D001C16FFF120007
:1001C80066D0000E0101076F0F0E086F02C109F11A
:1001D80003C10AF104C10BF105C10CF106C10DF10F
:1001E8003CDF66D0040E0101076F0F0E086F02C1D5
:1001F80009F103C10AF104C10BF105C10CF106C1F3
:100208000DF12BDF55D0080E0101076F0F0E086F97
:1002180002C109F103C10AF104C10BF105C10CF1D6
:1002280006C10DF11ADF44D00C0E0101076F0F0E45
:10023800086F02C109F103C10AF104C10BF105C13C
:100248000CF106C10DF109DF33D0100E0101076F63
:100258000F0E086F02C109F103C10AF104C10BF1C5
:1002680005C10CF106C10DF1F8DE22D0140E010112
:10027800076F0F0E086F02C109F103C10AF104C12B
:100288000BF105C10CF106C10DF1E7DE11D001013A
:100298000151000A96E00151010AA4E00151020A45
:1002A800B2E00151030AC0E00151040ACEE0DED7F2
:0202B800120032
:1002BA0001010151000A10E1180E076F0F0E086FB5
:1002CA0002C109F103C10AF104C10BF105C10CF124
:1002DA0006C10DF1C1DE10D01C0E0101076F0F0E11
:1002EA00086F02C109F103C10AF104C10BF105C18A
:0A02FA000CF106C10DF1B0DE120098
:0E030400026A016A006A086A036A000E1200AB
:1003120093949386800E0101016FFF0E026F43DFFB
:10032200F7C001F1F8C002F1F9C003F1FAC004F11B
:10033200FBC005F1FCC006F10EDF600E0001FC15EA
:10034200606E100EFC15016E0150100AD8B4608464
:1003520060CF50FF0101016B026B036B046B056BF5
:10036200F70E066FA9DF010E0101016F026B036B2D
:10037200046B056BF70E066F9FDF600E0001FC1524
:10038200006E9F0E0010016E0FD0F70EFD6FF70E7C
:10039200FE6F11D0FF0EFD6FFF0EFE6F0CD0FF0E31
:1003A200FD6FF70EFE6F07D00150DF0AEEE001503D
:1003B200BF0AF0E0F4D70101016B026B036B046B1F
:1003C200056BFDC006F1FFDE010E0101016F026B3C
:1003D200036B046B056BFDC006F1F5DE020E010135
:1003E200016F026B036B046B056BFEC006F1EBDE63
:1003F200030E0101016F026B036B046B056BFEC000
:1004020006F1E1DE040E0101016F026B036B046B66
:10041200056BFEC006F1D7DE050E0101016F026B0E
:10042200036B046B056BFEC006F1CDDE0101016BAF
:08043200FF0E026FB8DE12009C
:08043A000AAE029E000E120042
:100442000B840BAE2CEF02F0010E036E026A016AFE
:0A045200006A0A360232FF0E1200A3
:10045C000B820BAE38EF02F003680268016800688B
:08046C000A360232FF0E1200F5
:10047400010E0001F76F010EF86F060EF96F070EFB
:10048400FA6F060EFB6FB90EFC6F41DF800E016F31
:10049400FF0E026F87DEFF0E0001F36FFF0EF46F95
:1004A400F56FF66F0101016BFF0E026FFF0E036F14
:1004B400FF0E046FFF0E056FFF0E066FFCDE010ECC
:1004C4000101016FF3C002F1F4C003F1F5C004F1BE
:1004D400F6C005F1FF0E066FEEDE0101016B020EA0
:1004E400026F020E036F000E046F056FFF0E066F9E
:1004F40069DE010E0101016F500E026F000E036FE1
:10050400046F056FFF0E066F5DDE0101016BFF0EC8
:06051400026F48DE120038
:10051A000C6A0E6A0250D8A4A6EF02F001C002F0DB
:10052A0000C001F0006A0E860250D8A4A6EF02F0BD
:10053A0001C002F0016A0E960E880250D8B4B8EFD4
:10054A0002F00E50035ED8A4D8A0BDEF02F0D890F6
:10055A0002BEC2EF02F0003601360236032EADEFBC
:10056A0002F0BDEF02F0010E0C6EC7DEC5EF02F01D
:10057A00020E0C6E61DFC5EF02F0040E0C6E58DF3E
:02058A0012005D
:10058C000B800BAED2EF02F0026A0AAEFF0E026EC7
:0C059C00016E006E0A360232FF0E1200E3
:1005A8000E0E0001D66F090ED76FE80ED86F000E39
:1005B800D96F480EE26F090EE36F000EE46F000E6C
:1005C800E56F5A0EDA6F090EDB6F000EDC6F000E56
:1005D800DD6FFF0EDE6FFF0EDF6F000EE06F000EA7
:1005E800E16FAC8A900EAB6E948E949C9EAA03D059
:0805F800AECF00F0FBD71200AA
:10060000926A936A946A896A8A6A8B6A8288828A01
:10061000F28EF28CF28AF18EF18CF18AF184F098EC
:10062000F086F288948E949C400EAF6EAC84AC98A9
:10063000AB8EAC8AAB88AC9CAB9C400EAF6EAC84EE
:10064000B3DF93869394D58ED58CD59AD596070E25
:10065000D51210DF0001B46BB56B226A196A010E66
:0A066000176ED56BD36BD46B12003C
:10066A00086A096A000E07620364BAEF03F00250CF
:10067A0006180A6E075003267E0ED8A04BEF03F029
:10068A00035ED8B0BEEF03F04FEF03F0035ED8A0CD
:10069A00C2EF03F0028E068E02C00EF001C00BF00C
:1006AA0000C00DF000500402F4CF0CF00150050216
:1006BA00F4CF00F0F3CF08F00402F3500C26F45004
:1006CA000822000E00220D500502F3500C26F450A9
:1006DA000822000E002202500402F3500826F450A9
:1006EA00002202500502016A000E0122F350002680
:1006FA00F45001220D500602F3500826F45000224D
:10070A00026A000E012202220B500602F350002652
:10071A00F4500122000E02220E500602F350012666
:10072A00F450022202BEA2EF03F008360036013668
:10073A0002360306D8B4C2EF03F0B5EF03F0D8804F
:10074A00800E08640030000E002201220222D8A086
:10075A00B5EF03F0023201320032034ABEEF03F072
:10076A000AAE029E000EC4EF03F0010EC6DDC4EF0E
:10077A0003F0020E6EDEC4EF03F0040E5DDE12001B
:10078A000050086E0150006E016A026A036A0B6A21
:10079A000C6A960E036E0A6A00C001F008C000F0E7
:0807AA00086A026AB5DE1200C4
:1007B2000F0140B704D0F10E6F166F860FD030B71D
:1007C20005D0F10E6F16060E6F1208D020B704D0B6
:1007D200F10E6F166F8402D0006A4AD0030E000138
:1007E200EF15606EEFB711D0610E0101076F0F0EAA
:1007F200086FE8C009F1E9C00AF1EAC00BF1EBC0E9
:100802000CF1F70E0D6F2CDC10D0610E0101076F99
:100812000F0E086FE8C009F1E9C00AF1EAC00BF156
:10082200EBC00CF1FF0E0D6F1BDCEEC065FF00018B
:10083200EFBD01D0658C660EF16F0F0EF26FF06B9B
:10084200EE51F05D10E2F051F125E16E000EF22161
:10085200E26EF051EC25E96E000EED21EA6EEECF6C
:10086200E6FFF02BEDD76086F10E6F16FF0E006EDD
:02087200120072
:100874000B6A0C6A0A6A0350D8B46FEF04F00A9E3C
:10088400028E860E035E03BE4DEF04F0D8B44DEF26
:1008940004F072EF04F0036C080E035CD8A05BEF65
:1008A40004F0036E0236026A0350D8A4D89064EFB1
:1008B40004F00350D8B464EF04F0D8900232032E4D
:1008C4005FEF04F00BBC02A06FEF04F0D8A06FEF51
:1008D40004F0022AD8B479EF04F0016A7EEF04F040
:1008E4000B800BAE82EF04F0016A82EF04F0010E7C
:1008F4000C6E4ADE84EF04F0000E0C6E84EF04F0FC
:0A090400FF0E0C6E0250006E120090
:0E090E00ACB202D00000FCD7E8C0ADFF120072
:10091C00016A026A800E0218006E800E005C02E111
:10092C00080E015C0AE21A0E0124E16E000E022090
:0C093C00E26EE66A014A022AEDD71200C2
:10094800AECF01F0ABA202D0AB98AB8801C000F0EB
:0209580012008B
:0A095A00000E9EBA010E006E12009E
:100964004DDE8298829AD8DF2250010AD8B42080C2
:100974001950010AD8B420821750010AD8A478D09B
:100984001850000824E2232A23500A081FE2208476
:10099400D3C000F0D4C001F0000E0001D4BFFF0E9C
:1009A400026E036E00360090013602360336080EDE
:1009B4000024F66E0D0E0120F76E000E0220F86E74
:1009C4000900F5CF1AF0236A010ED56F50D000014B
:1009D400236AD34BD42B800ED419006E800E000AE8
:1009E400005C02E1120ED35D02E3D36BD46B810E83
:1009F400E86F8BDFAA0E0001E86F87DFD3C000F039
:100A0400D4C001F0000E0001D4BFFF0E026E036ECD
:100A140000360090013602360336080E0024F66EC6
:100A24000D0E0120F76E000E0220F86E0900F5CFBE
:100A3400E8F06BDFD3C000F0D4C001F0000E000179
:100A4400D4BFFF0E026E036E0036009001360236EC
:100A54000336080E0024F66E0D0E0120F76E000E0C
:100A64000220F86E0900F5CFE8F04FDF8278176AAC
:100A740072DF005215E01D0E185C12E2B60E000182
:100A8400E66F000EE76F1850E627D8B0E72B5ADF61
:100A9400E6C0E1FFE7C0E2FF00C0E6FF182AE8D79E
:100AA40018501D0AD8A413D1D3C000F0D4C001F04B
:100AB400000E0001D4BFFF0E026E036E00360090DC
:100AC400013602360336080E0024F66E0D0E0120A0
:100AD400F76E000E0220F86E0900F5CF1AF0030E2F
:100AE400026ED3C000F0D4C001F0025005E000361D
:100AF40000900136FF0FFAD70001240E0026000EE5
:100B0400012200C0E6F001C0E7F0B9C001F0006ABC
:100B1400B8510012000E011236DE5C0E046E8F0E08
:100B2400056E020E066E7D0E076E9DDDA1DEE6C02B
:100B3400E1FFE7C0E2FF00C0E6FF000EE66E030E31
:100B4400026ED3C000F0D4C001F0025005E00036BC
:100B540000900136FF0FFAD70001240E0026000E84
:100B6400012200C0E9FF01C0EAFFEECF1BF0020E34
:100B74000024E66F000E0120E76FBDC001F0006A9B
:100B8400BC510012000E0112FEDD5C0E046E8F0ECD
:100B9400056E020E066E7D0E076E65DD69DEE6C02B
:100BA400E1FFE7C0E2FF00C0E6FF000EE66E030EC1
:100BB400026ED3C000F0D4C001F0025005E000364C
:100BC40000900136FF0FFAD70001240E0026000E14
:100BD4000122020E0024E96E000E0120EA6EEECF1F
:100BE4001CF0040E0024E66F000E0120E76FC1C064
:100BF40001F0006AC0510012000E0112C4DD5C0E47
:100C0400046E8F0E056E020E066E7D0E076E2BDDD2
:100C14002FDEE6C0E1FFE7C0E2FF00C0E6FF000E02
:100C2400E66E030E026ED3C000F0D4C001F0025091
:100C340005E0003600900136FF0FFAD70001240EBC
:100C44000026000E0122040E0024E96E000E01208D
:100C5400EA6EEECF1DF0060E0024E66F000E0120B2
:100C6400E76FC5C001F0006AC4510012000E011202
:100C74008ADD5C0E046E8F0E056E020E066E7D0E0E
:100C8400076EF1DCF5DDE6C0E1FFE7C0E2FF00C07E
:100C9400E6FF000EE66E030E026ED3C000F0D4C071
:100CA40001F0025005E0003600900136FF0FFAD73C
:100CB4000001240E0026000E0122060E0024E96E17
:100CC400000E0120EA6EEECF1EF0010ED56F00017A
:100CD400D551010A15E1880EE86F000EE96F000E88
:100CE400EA6F000EEB6F1A0EEC6F000EED6F010E43
:100CF400EE6FFC0EEF6F5BDD827A186A0001D56B34
:040D040032D6FFD70D
:100D08000700080009000A000B000C000D000E0087
:100D18000F00100011001200130014001500160037
:040D28001700180098
:020000040030CA
:0D000100220F0EFFFF81FF0FC00FE00F4028
:00000001FF
