:0400000057EF01F0C5
:1000080000C016F001C015F0F0A004D0010E436E38
:10001800F0901DD0F2A204D0010E456EF29217D0D6
:10002800F2A415D0010E3924006E000E3A20016E9C
:1000380000C039F001C03AF03A50000802E13950E6
:10004800260804E2010E446E396A3A6AF29416C030
:0800580000F015C001F01100D9
:1000600055C003F056C004F057C005F058C006F064
:1000700059A62CD003C002F00232029E0232029E28
:100080000232029E050E016E04C000F0015004E031
:1000900000360090FF0FFBD753C0E1FF54C0E2FFD2
:1000A00000500210E66E534A542A050E016E03C03A
:1000B00000F0015004E000360090FF0FFBD753C062
:1000C000E1FF54C0E2FF00C0E6FF42D0050E006E23
:1000D00005C002F0005004E00232029EFF0FFBD781
:1000E00006C000F000360090003600900036009008
:1000F00053C0E1FF54C0E2FF00500210E66E534AC5
:10010000542A05C000F000360090003600900036FA
:100110000090E00E0016080E0010016E030E05148C
:10012000006E53C0E1FF54C0E2FF00500110E66EC4
:10013000534A542A53C0E1FF54C0E2FF04C0E6FF13
:10014000534A542A53C0E1FF54C0E2FF03C0E6FF04
:0201500012009B
:10015200AECF01F0ABA202D0AB98AB8801C000F0E9
:02016200120089
:100164000F0140B704D0F10E6F166F860FD030B771
:1001740005D0F10E6F16060E6F1208D020B704D00A
:10018400F10E6F166F8402D0006A45D0030E4F142F
:10019400606E4FB610D0610E536E0F0E546E48C091
:1001A40055F049C056F04AC057F04BC058F0F70E0E
:1001B400596E54DF0FD0610E536E0F0E546E48C04B
:1001C40055F049C056F04AC057F04BC058F0FF0EE6
:1001D400596E44DF4EC065FF4FAC658C660E516EA0
:1001E4000F0E526E506A4E50505C10E25050512423
:1001F400E16E000E5220E26E50504C24E96E000E67
:100204004D20EA6EEECFE6FF502AEDD76086F10E60
:080214006F16FF0E006E1200D0
:10021C000900F5CFE6FF0006FBE10106F9E112004B
:0A022C00000E9EBA010E006E1200D3
:10023600926A936A946AF28EF28CF28AF18EF18C4B
:10024600F18AF184F098F086F288D58ED59CD59AFD
:10025600D596D584D582D580396A3A6A436A456A85
:0E026600446A196A010E176E000E186E12001F
:10027400016A026A800E0218006E800E005C02E1C0
:10028400080E015C0AE23B0E0124E16E000E02201E
:0C029400E26EE66A014A022AEDD7120071
:0E02A000ACB202D00000FCD748C0ADFF120087
:1002AE00C3DFE1DF4352D8A441804552D8A4418236
:1002BE00445228E01A50000808E21B2A1B500A0874
:1002CE0003E241841B6A1A6A1DD01B6A174A182A58
:1002DE00800E000A006E800E1818005C02E11750A6
:1002EE00120804E2010E176E000E186E810E486E93
:1002FE00D0DFAA0E486ECDDF17C048F0CADF17C098
:10030E0048F0C7DF8CDF005251E01C0E466E000E27
:10031E00476E1A504626D8B0472A14DF46C0E1FF72
:10032E0047C0E2FF00C0E6FF1A2A1A501D0A3EE13E
:10033E0020C001F0006A1F500014036E01C004F0CB
:10034E00000E041604C000F0016A00C03CF024C088
:10035E0001F0006A23500014036E01C004F0000E79
:10036E00041604C000F0016A00C03DF028C001F080
:10037E00006A27500014036E01C004F0000E04162C
:10038E0004C000F0016A00C03EF02CC001F0006A0B
:10039E002B500014036E01C004F0000E041604C0AE
:1003AE0000F0016A00C03FF0010E196E1950010AEB
:1003BE0013E1880E486E000E496E000E4A6E000E56
:1003CE004B6E3B0E4C6E000E4D6E010E4E6EFC0EC5
:0C03DE004F6EC1DE1A6A196A64D7FFD79F
:020000040030CA
:0D000100220F0EFFFF81FF0FC00FE00F4028
:00000001FF
