:04000000B6EF04F063
:1000080000C016F001C015F0F0A004D0010E226E59
:10001800F0901DD0F2A204D0010E236EF29217D0F8
:10002800F2A415D0010E2724006E000E2820016EC0
:1000380000C027F001C028F02850000802E127502E
:10004800260804E2010E176E276A286AF29416C081
:0800580000F015C001F01100D9
:1000600009C103F00AC104F00BC105F00CC106F090
:1000700001010DA72CD003C002F00232029E023211
:10008000029E0232029E050E016E04C000F0015075
:1000900004E000360090FF0FFBD707C1E1FF08C165
:1000A000E2FF00500210E66E074B082B050E016EB2
:1000B00003C000F0015004E000360090FF0FFBD7B2
:1000C00007C1E1FF08C1E2FF00C0E6FF43D0050E13
:1000D000006E05C002F0005004E00232029EFF0FE5
:1000E000FBD7010106C000F00036009000360090FA
:1000F0000036009007C1E1FF08C1E2FF0050021086
:10010000E66E074B082B05C000F000360090003665
:10011000009000360090E00E0016080E0010016EF0
:10012000030E0514006E07C1E1FF08C1E2FF005095
:100130000110E66E074B082B07C1E1FF08C1E2FF83
:1001400004C0E6FF074B082B07C1E1FF08C1E2FF2F
:0601500003C0E6FF1200EF
:10015600010101070207030704070507060E006EE3
:1001660001C170FF005004E070367090FF0FFBD79E
:100176000251701203C171FF713671907136719020
:10018600713671900551711206B501D0718C06A1B8
:1001960001D0718E04C172FF06A301D0728C1200C9
:1001A600010102530AE001C16FFFE00E6E14016EF9
:1001B6000150011901E0F9D702D001C16FFF120009
:1001C60066D0000E0101076F0F0E086F02C109F11C
:1001D60003C10AF104C10BF105C10CF106C10DF111
:1001E6003CDF66D0040E0101076F0F0E086F02C1D7
:1001F60009F103C10AF104C10BF105C10CF106C1F5
:100206000DF12BDF55D0080E0101076F0F0E086F99
:1002160002C109F103C10AF104C10BF105C10CF1D8
:1002260006C10DF11ADF44D00C0E0101076F0F0E47
:10023600086F02C109F103C10AF104C10BF105C13E
:100246000CF106C10DF109DF33D0100E0101076F65
:100256000F0E086F02C109F103C10AF104C10BF1C7
:1002660005C10CF106C10DF1F8DE22D0140E010114
:10027600076F0F0E086F02C109F103C10AF104C12D
:100286000BF105C10CF106C10DF1E7DE11D001013C
:100296000151000A96E00151010AA4E00151020A47
:1002A600B2E00151030AC0E00151040ACEE0DED7F4
:0202B600120034
:1002B80001010151000A10E1180E076F0F0E086FB7
:1002C80002C109F103C10AF104C10BF105C10CF126
:1002D80006C10DF1C1DE10D01C0E0101076F0F0E13
:1002E800086F02C109F103C10AF104C10BF105C18C
:0A02F8000CF106C10DF1B0DE12009A
:0E030200026A016A006A086A036A000E1200AD
:1003100093949386800E0101016FFF0E026F43DFFD
:10032000F9C001F1FAC002F1FBC003F1FCC004F115
:10033000FDC005F1FEC006F10EDF600E0001FE15E6
:10034000606E100EFE15016E0150100AD8B4608464
:1003500060CF50FF0101016B026B036B046B056BF7
:10036000F70E066FA9DF010E0101016F026B036B2F
:10037000046B056BF70E066F9FDF600E0001FE1524
:10038000006E9F0E0010016E15D00001F70EFF6F7A
:10039000F70E0101006F15D0FF0E0001FF6FFF0E79
:1003A0000101006F0ED0FF0E0001FF6FF70E01017B
:1003B000006F07D00150DF0AE8E00150BF0AECE00F
:1003C000F2D70101016B026B036B046B056BFFC07D
:1003D00006F1F9DE010E0101016F026B036B046B84
:1003E000056BFFC006F1EFDE020E0101016F026B2B
:1003F000036B046B056B00C106F1E5DE030E010122
:10040000016F026B036B046B056B00C106F1DBDE51
:10041000040E0101016F026B036B046B056B00C1DD
:1004200006F1D1DE050E0101016F026B036B046B57
:10043000056B00C106F1C7DE0101016BFF0E026F03
:04044000B2DE120016
:080444000AAE029E000E120038
:10044C000B840BAE31EF02F0010E036E026A016AEF
:0A045C00006A0A360232FF0E120099
:100466000B820BAE3DEF02F003680268016800687C
:080476000A360232FF0E1200EB
:10047E00010E0001F96F010EFA6F060EFB6F070EEB
:10048E00FC6F060EFD6FB90EFE6F3BDF800E016F27
:10049E00FF0E026F81DEFF0E0001F56FFF0EF66F8D
:1004AE00F76FF86F0101016BFF0E026FFF0E036F06
:1004BE00FF0E046FFF0E056FFF0E066FF6DE010EC8
:1004CE000101016FF5C002F1F6C003F1F7C004F1AE
:1004DE00F8C005F1FF0E066FE8DE0101016B020E9A
:1004EE00026F020E036F000E046F056FFF0E066F94
:1004FE0063DE010E0101016F500E026F000E036FDD
:10050E00046F056FFF0E066F57DE0101016BFF0EC4
:06051E00026F42DE120034
:100524000C6A0E6A0250D8A4ABEF02F001C002F0CC
:1005340000C001F0006A0E860250D8A4ABEF02F0AE
:1005440001C002F0016A0E960E880250D8B4BDEFC5
:1005540002F00E50035ED8A4D8A0C2EF02F0D890E7
:1005640002BEC7EF02F0003601360236032EB2EFA8
:1005740002F0C2EF02F0010E0C6EC1DECAEF02F00F
:10058400020E0C6E61DFCAEF02F0040E0C6E58DF2F
:02059400120053
:100596000B800BAED7EF02F0026A0AAEFF0E026EB8
:0C05A600016E006E0A360232FF0E1200D9
:1005B200160E0001DC6F090EDD6FEA0EDE6F000E13
:1005C200DF6F500ED86F090ED96F000EDA6F000E72
:1005D200DB6F620EE46F090EE56F000EE66F000E30
:1005E200E76FFF0EE06FFF0EE16F000EE26F000E8D
:1005F200E36FAC8A900EAB6E948E949C9EAA03D04D
:08060200AECF00F0FBD712009F
:10060A00926A936A946A896A8A6A8B6A8288828AF7
:10061A00F28EF28CF28AF18EF18CF18AF184F098E2
:10062A00F086F288948E949C400EAF6EAC84AC989F
:10063A00AB8EAC8AAB88AC9CAB9C400EAF6EAC84E4
:10064A00B3DF93869394D58ED58CD59AD596070E1B
:10065A00D51210DF276A286A226A236A010E176EEA
:08066A00246A296A2A6A1200C1
:10067200086A096A000E07620364BEEF03F00250C3
:1006820006180A6E075003267E0ED8A04FEF03F01D
:10069200035ED8B0C2EF03F053EF03F0035ED8A0BD
:1006A200C6EF03F0028E068E02C00EF001C00BF000
:1006B20000C00DF000500402F4CF0CF0015005020E
:1006C200F4CF00F0F3CF08F00402F3500C26F450FC
:1006D2000822000E00220D500502F3500C26F450A1
:1006E2000822000E002202500402F3500826F450A1
:1006F200002202500502016A000E0122F350002678
:10070200F45001220D500602F3500826F450002244
:10071200026A000E012202220B500602F35000264A
:10072200F4500122000E02220E500602F35001265E
:10073200F450022202BEA6EF03F00836003601365C
:1007420002360306D8B4C6EF03F0B9EF03F0D8803F
:10075200800E08640030000E002201220222D8A07E
:10076200B9EF03F0023201320032034AC2EF03F062
:100772000AAE029E000EC8EF03F0010EC1DDC8EF03
:1007820003F0020E6FDEC8EF03F0040E5EDE12000D
:100792000050086E0150006E016A026A036A0B6A19
:1007A2000C6A960E036E0A6A00C001F008C000F0DF
:0807B200086A026AB6DE1200BB
:1007BA000F0140B704D0F10E6F166F860FD030B715
:1007CA0005D0F10E6F16060E6F1208D020B704D0AE
:1007DA00F10E6F166F8402D0006A4AD0030E000130
:1007EA00F115606EF1B711D0610E0101076F0F0E9E
:1007FA00086FEAC009F1EBC00AF1ECC00BF1EDC0D9
:10080A000CF1F70E0D6F27DC10D0610E0101076F96
:10081A000F0E086FEAC009F1EBC00AF1ECC00BF148
:10082A00EDC00CF1FF0E0D6F16DCF0C065FF000184
:10083A00F1BD01D0658C660EF36F0F0EF46FF26B8B
:10084A00F051F25D10E2F251F325E16E000EF4214F
:10085A00E26EF251EE25E96E000EEF21EA6EEECF5E
:10086A00E6FFF22BEDD76086F10E6F16FF0E006ED3
:02087A0012006A
:10087C000B6A0C6A0A6A0350D8B473EF04F00A9E30
:10088C00028E860E035E03BE51EF04F0D8B451EF16
:10089C0004F076EF04F0036C080E035CD8A05FEF55
:1008AC0004F0036E0236026A0350D8A4D89068EFA5
:1008BC0004F00350D8B468EF04F0D8900232032E41
:1008CC0063EF04F00BBC02A073EF04F0D8A073EF3D
:1008DC0004F0022AD8B47DEF04F0016A82EF04F030
:1008EC000B800BAE86EF04F0016A86EF04F0010E6C
:1008FC000C6E4BDE88EF04F0000E0C6E88EF04F0EB
:0A090C00FF0E0C6E0250006E120088
:0E091600ACB202D00000FCD7EAC0ADFF120068
:10092400016A026A800E0218006E800E005C02E109
:10093400080E015C0AE21A0E0124E16E000E022088
:0C094400E26EE66A014A022AEDD71200BA
:10095000AECF01F0ABA202D0AB98AB8801C000F0E3
:02096000120083
:0A096200000E9EBA010E006E120096
:10096C004EDE8298829AD8DF2250010AD8B42080B9
:10097C00010E236E2352D8A420821750010A5AE18B
:10098C001850000808E2192A19500A0803E22084BA
:10099C00196A186A4ED0196A294A2A2A800E2A180E
:1009AC00006E800E000A005C02E1120E295C02E36C
:1009BC00296A2A6A810E0001EA6FA7DFAA0E0001DC
:1009CC00EA6FA3DF29C000F02AC001F0000E2ABE96
:1009DC00FF0E026E036E00360090013602360336AF
:1009EC00F40E0024F66E0C0E0120F76E000E0220A1
:1009FC00F86E0900F5CFEAF088DF29C000F02AC0B4
:100A0C0001F0000E2ABEFF0E026E036E003600903F
:100A1C00013602360336F40E0024F66E0C0E01205D
:100A2C00F76E000E0220F86E0900F5CFEAF06DDFCC
:100A3C008278176A90DF0052D8B425D12B0E0001B2
:100A4C00E86F000EE96F1850E827D8B0E92B7ADF71
:100A5C00E8C0E1FFE9C0E2FF00C0E6FF182A185029
:100A6C001D0AD8A410D129C000F02AC001F0000E34
:100A7C002ABEFF0E026E036E00360090013602365F
:100A8C000336F40E0024F66E0C0E0120F76E000EE9
:100A9C000220F86E0900F5CF1AF0030E026E29C081
:100AAC0000F02AC001F0025005E00036009001363B
:100ABC00FF0FFAD7480E0026000E012200C0E8F006
:100ACC0001C0E9F02EC001F0006A2D500012000E9A
:100ADC00011259DE5C0E046E8F0E056E020E066E50
:100AEC007D0E076EC0DDC4DEE8C0E1FFE9C0E2FFA9
:100AFC0000C0E6FF000EE66E030E026E29C000F089
:100B0C002AC001F0025005E0003600900136FF0FBC
:100B1C00FAD7480E0026000E012200C0E9FF01C0E2
:100B2C00EAFFEECF1BF0020E00240001E86F000E6E
:100B3C000120E96F32C001F0006A31500012000E42
:100B4C00011221DE5C0E046E8F0E056E020E066E17
:100B5C007D0E076E88DD8CDEE8C0E1FFE9C0E2FFA8
:100B6C0000C0E6FF000EE66E030E026E29C000F018
:100B7C002AC001F0025005E0003600900136FF0F4C
:100B8C00FAD70001480E0026000E0122020E0024A6
:100B9C00E96E000E0120EA6EEECF1CF0040E00246C
:100BAC00E86F000E0120E96F36C001F0006A355085
:100BBC000012000E0112E7DD5C0E046E8F0E056E46
:100BCC00020E066E7D0E076E4EDD52DEE8C0E1FFB2
:100BDC00E9C0E2FF00C0E6FF000EE66E030E026EF7
:100BEC0029C000F02AC001F0025005E00036009048
:100BFC000136FF0FFAD70001480E0026000E012225
:100C0C00040E0024E96E000E0120EA6EEECF1DF0FA
:100C1C00060E0024E86F000E0120E96F3AC001F0C7
:100C2C00006A39500012000E0112ADDD5C0E046E2C
:100C3C008F0E056E020E066E7D0E076E14DD18DE2D
:100C4C00E8C0E1FFE9C0E2FF00C0E6FF000EE66E7F
:100C5C00030E026E29C000F02AC001F0025005E01C
:100C6C00003600900136FF0FFAD7480E0026000E12
:100C7C000122060E0024E96E000E0120EA6EEECF72
:100C8C001EF0010E246E2450010A2CE1256A266AFE
:100C9C00800E2618006E800E005C02E1080E255CAA
:100CAC000CE21A0E2524E96E000E2620EA6EEECF19
:100CBC00EAF02BDE254A262AEBD7880E0001EA6FD4
:100CCC00000EEB6F000EEC6F000EED6F1A0EEE6F58
:100CDC00000EEF6F010EF06FFC0EF16F68DD827A83
:080CEC00186A246A40D6FFD704
:100CF4000700080009000A000B000C000D000E009C
:100D04000F0010001100120013001400150016004B
:040D140017001800AC
:020000040030CA
:0D000100220F0EFFFF81FF0FC00FE00F4028
:00000001FF
