:0400000050EF02F0CB
:10000800F0A002D0F09006D0F2A202D0F29202D074
:06001800F2B4F2941100A5
:10001E002EC003F02FC004F030C005F031C006F042
:10002E0032A62CD003C002F00232029E0232029E91
:10003E000232029E050E016E04C000F0015004E073
:10004E0000360090FF0FFBD72CC0E1FF2DC0E2FF62
:10005E0000500210E66E2C4A2D2A050E016E03C0CA
:10006E0000F0015004E000360090FF0FFBD72CC0CB
:10007E00E1FF2DC0E2FF00C0E6FF42D0050E006E8C
:10008E0005C002F0005004E00232029EFF0FFBD7C3
:10009E0006C000F00036009000360090003600904A
:1000AE002CC0E1FF2DC0E2FF00500210E66E2C4A7C
:1000BE002D2A05C000F00036009000360090003664
:1000CE000090E00E0016080E0010016E030E0514CF
:1000DE00006E2CC0E1FF2DC0E2FF00500110E66E55
:1000EE002C4A2D2A2CC0E1FF2DC0E2FF04C0E6FFF2
:1000FE002C4A2D2A2CC0E1FF2DC0E2FF03C0E6FFE3
:02010E001200DD
:1001100026062706280629062A06060E006E26C091
:1001200070FF005004E070367090FF0FFBD727502F
:10013000701228C071FF71367190713671907136EE
:1001400071902A5071122BA4718C2BB0718E29C022
:0801500072FF2BB2728C120049
:1001580027520AE026C06FFFE00E6E14016E0150B0
:0E016800261801E0F9D702D026C06FFF120062
:100176002650000A10E1180E2C6E0F0E2D6E27C0A9
:100186002EF028C02FF029C030F02AC031F02BC045
:1001960032F042DF0FD01C0E2C6E0F0E2D6E27C0D4
:1001A6002EF028C02FF029C030F02AC031F02BC025
:0601B60032F032DF1200FE
:1001BC0060D0000E2C6E0F0E2D6E27C02EF028C0B6
:1001CC002FF029C030F02AC031F02BC032F021DFE3
:1001DC0060D0040E2C6E0F0E2D6E27C02EF028C092
:1001EC002FF029C030F02AC031F02BC032F011DFD3
:1001FC0050D0080E2C6E0F0E2D6E27C02EF028C07E
:10020C002FF029C030F02AC031F02BC032F001DFC2
:10021C0040D00C0E2C6E0F0E2D6E27C02EF028C069
:10022C002FF029C030F02AC031F02BC032F0F1DEB3
:10023C0030D0100E2C6E0F0E2D6E27C02EF028C055
:10024C002FF029C030F02AC031F02BC032F0E1DEA3
:10025C0020D0140E2C6E0F0E2D6E27C02EF028C041
:10026C002FF029C030F02AC031F02BC032F0D1DE93
:10027C0010D02650000A9DE02650010AAAE0265014
:10028C00020AB7E02650030AC4E02650040AD1E063
:04029C00E0D7120095
:1002A00093949386800E266EFF0E276E55DF1EC038
:1002B00026F01FC027F020C028F021C029F022C05E
:1002C0002AF023C02BF024DF600E2314606E100E82
:1002D0002314016E0150100AD8B4608460CF50FF1F
:1002E000266A276A286A296A2A6AF70E2B6E43DF74
:1002F000010E266E276A286A296A2A6AF70E2B6E73
:100300003ADF600E2314006E9F0E0010016E0FD0B6
:10031000F70E246EF70E256E11D0FF0E246EFF0E21
:10032000256E0CD0FF0E246EF70E256E07D00150FF
:10033000DF0AEEE00150BF0AF0E0F4D7266A276A30
:10034000286A296A2A6A24C02BF038DF010E266E3B
:10035000276A286A296A2A6A24C02BF02FDF020E36
:10036000266E276A286A296A2A6A25C02BF026DFAA
:10037000030E266E276A286A296A2A6A25C02BF08E
:100380001DDF040E266E276A286A296A2A6A25C09C
:100390002BF014DF050E266E276A286A296A2A6A5E
:1003A00025C02BF00BDF266AFF0E276ED5DE12006C
:1003B000010E1E6E010E1F6E060E206E070E216EC0
:1003C000060E226EB90E236E6BDF800E266EFF0EB8
:1003D000276EC2DEFF0E1A6EFF0E1B6E1C6E1D6EA8
:1003E000266AFF0E276EFF0E286EFF0E296EFF0E87
:1003F0002A6EFF0E2B6EBFDE010E266E1AC027F08E
:100400001BC028F01CC029F01DC02AF0FF0E2B6E67
:10041000B2DE266A020E276E020E286E000E296ECC
:100420002A6EFF0E2B6ECADE010E266E500E276E50
:10043000000E286E296E2A6EFF0E2B6EBFDE266A16
:08044000FF0E276E89DE120099
:10044800926A936A946AF28EF28CF28AF18EF18C37
:10045800F18AF184F098F086F288AB8EAB9CAC9868
:10046800948EAC84400EAF6E93869394D58ED59CB3
:10047800D59AD596D584D582D58096DF176A186A1D
:08048800196A156A166A1200D8
:100490000900F5CFE6FF0006FBE10106F9E11200D5
:0404A000D3DFFFD7D0
:020000040030CA
:0D000100220F0EFFFF81FF0FC00FE00F4028
:00000001FF
