:0400000079EF02F0A2
:1000080000C016F001C015F0F0A004D0010E186E63
:10001800F09021D0F2A204D0010E176EF2921BD0FC
:10002800F2A419D0010E1A24006E000E1B20016ED6
:1000380000C01AF001C01BF0800E000A006E800E8E
:100048001B18005C02E11A50640804E2010E196EE4
:100058001A6A1B6AF29416C000F015C001F011006C
:1000680032C003F033C004F034C005F035C006F0E8
:1000780036A62CD003C002F00232029E0232029E43
:100088000232029E050E016E04C000F0015004E029
:1000980000360090FF0FFBD730C0E1FF31C0E2FF10
:1000A80000500210E66E304A312A050E016E03C078
:1000B80000F0015004E000360090FF0FFBD730C07D
:1000C800E1FF31C0E2FF00C0E6FF42D0050E006E3E
:1000D80005C002F0005004E00232029EFF0FFBD779
:1000E80006C000F000360090003600900036009000
:1000F80030C0E1FF31C0E2FF00500210E66E304A26
:10010800312A05C000F00036009000360090003615
:100118000090E00E0016080E0010016E030E051484
:10012800006E30C0E1FF31C0E2FF00500110E66E02
:10013800304A312A30C0E1FF31C0E2FF04C0E6FF97
:10014800304A312A30C0E1FF31C0E2FF03C0E6FF88
:02015800120093
:10015A002A062B062C062D062E06060E006E2AC02F
:10016A0070FF005004E070367090FF0FFBD72B50E1
:10017A0070122CC071FF71367190713671907136A0
:10018A0071902E5071122FA4718C2FB0718E2DC0C8
:08019A0072FF2FB2728C1200FB
:1001A2002B520AE02AC06FFFE00E6E14016E01505E
:0E01B2002A1801E0F9D702D02AC06FFF120010
:1001C0002A50000A10E1180E306E0F0E316E2BC04F
:1001D00032F02CC033F02DC034F02EC035F02FC0DB
:1001E00036F042DF0FD01C0E306E0F0E316E2BC07A
:1001F00032F02CC033F02DC034F02EC035F02FC0BB
:0602000036F032DF1200AF
:1002060060D0000E306E0F0E316E2BC032F02CC057
:1002160033F02DC034F02EC035F02FC036F021DF7C
:1002260060D0040E306E0F0E316E2BC032F02CC033
:1002360033F02DC034F02EC035F02FC036F011DF6C
:1002460050D0080E306E0F0E316E2BC032F02CC01F
:1002560033F02DC034F02EC035F02FC036F001DF5C
:1002660040D00C0E306E0F0E316E2BC032F02CC00B
:1002760033F02DC034F02EC035F02FC036F0F1DE4D
:1002860030D0100E306E0F0E316E2BC032F02CC0F7
:1002960033F02DC034F02EC035F02FC036F0E1DE3D
:1002A60020D0140E306E0F0E316E2BC032F02CC0E3
:1002B60033F02DC034F02EC035F02FC036F0D1DE2D
:1002C60010D02A50000A9DE02A50010AAAE02A50BE
:1002D600020AB7E02A50030AC4E02A50040AD1E011
:0402E600E0D712004B
:1002EA0093949386800E2A6EFF0E2B6E55DF22C0E2
:1002FA002AF023C02BF024C02CF025C02DF026C0F4
:10030A002EF027C02FF024DF600E2714606E100E27
:10031A002714016E0150100AD8B4608460CF50FFD0
:10032A002A6A2B6A2C6A2D6A2E6AF70E2F6E43DF11
:10033A00010E2A6E2B6A2C6A2D6A2E6AF70E2F6E10
:10034A003ADF600E2714006E9F0E0010016E0FD068
:10035A00F70E286EF70E296E11D0FF0E286EFF0ECB
:10036A00296E0CD0FF0E286EF70E296E07D00150A9
:10037A00DF0AEEE00150BF0AF0E0F4D72A6A2B6ADE
:10038A002C6A2D6A2E6A28C02FF038DF010E2A6ED9
:10039A002B6A2C6A2D6A2E6A28C02FF02FDF020ED4
:1003AA002A6E2B6A2C6A2D6A2E6A29C02FF026DF44
:1003BA00030E2A6E2B6A2C6A2D6A2E6A29C02FF028
:1003CA001DDF040E2A6E2B6A2C6A2D6A2E6A29C03A
:1003DA002FF014DF050E2A6E2B6A2C6A2D6A2E6AFC
:1003EA0029C02FF00BDF2A6AFF0E2B6ED5DE120012
:1003FA00010E226E010E236E060E246E070E256E66
:10040A00060E266EB90E276E6BDF800E2A6EFF0E61
:10041A002B6EC2DEFF0E1E6EFF0E1F6E206E216E49
:10042A002A6AFF0E2B6EFF0E2C6EFF0E2D6EFF0E2C
:10043A002E6EFF0E2F6EBFDE010E2A6E1EC02BF02F
:10044A001FC02CF020C02DF021C02EF0FF0E2F6E01
:10045A00B2DE2A6A020E2B6E020E2C6E000E2D6E72
:10046A002E6EFF0E2F6ECADE010E2A6E500E2B6EF6
:10047A00000E2C6E2D6E2E6EFF0E2F6EBFDE2A6AB8
:08048A00FF0E2B6E89DE12004B
:10049200926A936A946AF28EF28CF28AF18EF18CED
:1004A200F18AF184F098F086F288AB8EAB9CAC981E
:1004B200948EAC84400EAF6E93869394D58ED59C69
:1004C200D59AD596D584D582D58096DF1A6A1B6ACD
:1004D200186A176A196A010E1C6E000E1D6E120050
:1004E2000900F5CFE6FF0006FBE10106F9E1120083
:1004F200CFDF185200E0175200E0195200E0F9D79E
:02050200FFD721
:020000040030CA
:0D000100220F0EFFFF81FF0FC00FE00F4028
:00000001FF
