:040000008BEF02F090
:1000080000C016F001C015F0F0A004D0010E186E63
:10001800F0901DD0F2A204D0010E176EF29217D004
:10002800F2A415D0010E2324006E000E2420016EC8
:1000380000C023F001C024F02450000802E123503E
:10004800640804E2010E256E236A246AF29416C03D
:0800580000F015C001F01100D9
:100060003AC003F03BC004F03CC005F03DC006F0D0
:100070003EA62CD003C002F00232029E0232029E43
:100080000232029E050E016E04C000F0015004E031
:1000900000360090FF0FFBD738C0E1FF39C0E2FF08
:1000A00000500210E66E384A392A050E016E03C070
:1000B00000F0015004E000360090FF0FFBD738C07D
:1000C000E1FF39C0E2FF00C0E6FF42D0050E006E3E
:1000D00005C002F0005004E00232029EFF0FFBD781
:1000E00006C000F000360090003600900036009008
:1000F00038C0E1FF39C0E2FF00500210E66E384A16
:10010000392A05C000F00036009000360090003615
:100110000090E00E0016080E0010016E030E05148C
:10012000006E38C0E1FF39C0E2FF00500110E66EFA
:10013000384A392A38C0E1FF39C0E2FF04C0E6FF7F
:10014000384A392A38C0E1FF39C0E2FF03C0E6FF70
:0201500012009B
:100152003250000A10E1180E386E0F0E396E33C09D
:100162003AF034C03BF035C03CF036C03DF037C009
:100172003EF075DF0FD01C0E386E0F0E396E33C095
:100182003AF034C03BF035C03CF036C03DF037C0E9
:060192003EF065DF1200E3
:1001980033520AE032C06FFFE00E6E14016E015058
:0E01A800321801E0F9D702D032C06FFF12000A
:1001B60032063306340635063606060E006E32C0A3
:1001C60070FF005004E070367090FF0FFBD733507D
:1001D600701234C071FF713671907136719071363C
:1001E60071903650711237A4718C37B0718E35C04C
:0801F60072FF37B2728C120097
:1001FE0060D0000E386E0F0E396E33C03AF034C038
:10020E003BF035C03CF036C03DF037C03EF021DF4C
:10021E0060D0040E386E0F0E396E33C03AF034C013
:10022E003BF035C03CF036C03DF037C03EF011DF3C
:10023E0050D0080E386E0F0E396E33C03AF034C0FF
:10024E003BF035C03CF036C03DF037C03EF001DF2C
:10025E0040D00C0E386E0F0E396E33C03AF034C0EB
:10026E003BF035C03CF036C03DF037C03EF0F1DE1D
:10027E0030D0100E386E0F0E396E33C03AF034C0D7
:10028E003BF035C03CF036C03DF037C03EF0E1DE0D
:10029E0020D0140E386E0F0E396E33C03AF034C0C3
:1002AE003BF035C03CF036C03DF037C03EF0D1DEFD
:1002BE0010D03250000A9DE03250010AAAE03250AE
:1002CE00020AB7E03250030AC4E03250040AD1E009
:0402DE00E0D7120053
:1002E20093949386800E326EFF0E336E54DF2AC0D3
:1002F20032F02BC033F02CC034F02DC035F02EC0BC
:1003020036F02FC037F056DF600E2F14606E100EDD
:100312002F14016E0150100AD8B4608460CF50FFD0
:10032200326A336A346A356A366AF70E376E10DF1C
:10033200010E326E336A346A356A366AF70E376EE8
:1003420007DF600E2F14006E9F0E0010016E0FD09B
:10035200F70E306EF70E316E11D0FF0E306EFF0EBB
:10036200316E0CD0FF0E306EF70E316E07D0015099
:10037200DF0AEEE00150BF0AF0E0F4D7326A336AD6
:10038200346A356A366A30C037F038DF010E326EB1
:10039200336A346A356A366A30C037F02FDF020EAC
:1003A200326E336A346A356A366A31C037F026DF14
:1003B200030E326E336A346A356A366A31C037F0F8
:1003C2001DDF040E326E336A346A356A366A31C012
:1003D20037F014DF050E326E336A346A356A366AD4
:1003E20031C037F00BDF326AFF0E336ED4DE1200FB
:1003F200010E2A6E010E2B6E060E2C6E070E2D6E4E
:10040200060E2E6EB90E2F6E6BDF800E326EFF0E51
:10041200336EC1DEFF0E266EFF0E276E286E296E2A
:10042200326AFF0E336EFF0E346EFF0E356EFF0E14
:10043200366EFF0E376E8CDE010E326E26C033F042
:1004420027C034F028C035F029C036F0FF0E376ED1
:100452007FDE326A020E336E020E346E000E356E8D
:10046200366EFF0E376ECADE010E326E500E336EDE
:10047200000E346E356E366EFF0E376EBFDE326A98
:08048200FF0E336E88DE12004C
:10048A00926A936A946AF28EF28CF28AF18EF18CF5
:10049A00F18AF184F098F086F288AB8EAB9CAC9826
:1004AA00948EAC84400EAF6E93869394D58ED59C71
:1004BA00D59AD596D584D582D58096DF236A246AC3
:1004CA00186A176A256A010E216E000E226E120042
:1004DA000900F5CFE6FF0006FBE10106F9E112008B
:1004EA00016A026A800E0218006E800E005C02E148
:1004FA00080E015C0AE2190E0124E16E000E0220C8
:0C050A00E26EE66A014A022AEDD71200F8
:10051600B9DFE8DF185200E0175200E0255200E08C
:04052600F8D7FFD72C
:020000040030CA
:0D000100220F0EFFFF81FF0FC00FE00F4028
:00000001FF
