:0400000032EF00F0EB
:1000080000C015F0F2A40DD0174A182A185000089D
:1000180002E117504C0804E2FF0E166E176A186AC0
:08002800F29415C000F0110074
:08003000F28EF28AF184120045
:100038000900F5CFE6FF0006FBE10106F9E1120031
:10004800926A936A946AD58ED58CD59AD596070EFE
:0C005800D512EADF166A176A186A120057
:10006400F1DFE4DF828C1650FF0A0CE182AC02D08F
:10007400006A02D0010E006E00B002D0829C01D052
:08008400828C166AF0D7FFD749
:020000040030CA
:0D000100220F0EFFFF81FF0FC00FE00F4028
:00000001FF
